:020000040800F2
:1000000068FA01209D010008352A0008B120000887
:100010003D280008DB0800080D370008000000003C
:10002000000000000000000000000000752B000828
:10003000190C000800000000372A00086D2D000888
:10004000B7010008B7010008B7010008B7010008B0
:10005000B7010008B70100081B0C0008210C0008BC
:10006000B7010008B7010008270C0008B701000815
:10007000B7010008B7010008B7010008B701000880
:10008000B7010008B7010008B7010008B701000870
:1000900019090008B7010008B7010008B7010008F6
:1000A000B7010008B7010008B7010008B701000850
:1000B000B7010008B7010008B7010008B701000840
:1000C000B7010008B7010008B7010008B701000830
:1000D000B701000829340008E53400089D35000800
:1000E000B7010008B7010008B7010008B701000810
:1000F000B7010008B7010008B7010008B701000800
:10010000B7010008B7010008B7010008B7010008EF
:10011000B931000871320008912E0008B7010008BB
:10012000B7010008B7010008B7010008B7010008CF
:10013000B7010008B7010008B7010008B7010008BF
:10014000B7010008B7010008B7010008B7010008AF
:10015000B7010008B7010008B701000855360008CC
:10016000B7010008B7010008B7010008B70100088F
:10017000B7010008B7010008B7010008000000003F
:10018000B7010008B7010008DFF80CD000F056FBFB
:1001900000480047D149020868FA01200648804714
:1001A00006480047FEE7FEE7FEE7FEE7FEE7FEE75C
:1001B000FEE7FEE7FEE7FEE7812E00088901000862
:1001C0002DE9F05F0546002092469B46884606468C
:1001D000814640241BE0284641464746224600F01F
:1001E00042F953465A46C01A914110D31146184657
:1001F000224600F029F92D1A67EB01084F462246E6
:100200000120002100F020F917EB00094E41201ECB
:10021000A4F10104DFDC484631462A464346BDE8E6
:10022000F09F10B5431A934209D28318881803E04F
:1002300010F8011D03F8011D521EF9D210BD40EA4D
:1002400001039B0703D009E008C9121F08C0042A54
:10025000FAD203E011F8013B00F8013B521EF9D23B
:1002600010BDD2B201E000F8012B491EFBD270474D
:100270000022F6E710B513460A4604461946FFF772
:10028000F0FF204610BD30B505462A460B4612F851
:10029000010B13F8014B08B1A042F8D01CB10028A3
:1002A00002D06D1CF1E7284630BD421C10F8011B3E
:1002B0000029FBD1801A704710B5002200E0521CC3
:1002C000835C8C5CA34201D1002BF8D1D8B2E1B29F
:1002D000401A10BD034611F8012B00F8012B002A2B
:1002E000F9D1184670472DE9FE4F81EA030404F066
:1002F000004421F0004100944FF0000B23F0004334
:1003000050EA01045ED052EA03045BD0C3F30A54FE
:10031000C1F30A552C44A4F2F3340194A0FB025417
:10032000C1F3130141F48011C3F3130343F48013A9
:1003300001FB024400FB034E840A970A44EA8154FD
:1003400047EA8357A4FB076802958D0A05FB0785DA
:100350004FEA932C04FB0C542705029D4FEA0658E4
:1003600047EA1637B5EB08056EEB070C870E920EC1
:1003700047EA811742EA8312A7FB0201B6EB0B01A1
:1003800064EB00042B0D43EA0C335E1844EB1C5065
:10039000DA465146E7FB0201C5F313044FEA0B337B
:1003A00043EA14534FEA0432019C43EA0603A4F1E2
:1003B0000C040294009CCDE900B400F0AAF803B04C
:1003C000BDE8F08F00200146F9E70EB540F2334159
:1003D00002910021CDE900110A460B4600F099F880
:1003E00003B000BD01F0004330B421F0004150EAF9
:1003F000010206D00A0DA2F56072C1F31301002AB2
:1004000002DC30BC00207047440F44EAC104C10044
:10041000E01830BC00EBC25000F035B830B50B46E8
:10042000014600202022012409E021FA02F59D4224
:1004300005D303FA02F5491B04FA02F52844151EF8
:10044000A2F10102F1DC30BD202A04DB203A00FADF
:1004500002F1002070479140C2F1200320FA03F31B
:10046000194390407047202A04DB203A21FA02F019
:100470000021704721FA02F3D040C2F120029140DE
:100480000843194670470029A8BF7047401C49001F
:1004900008BF20F00100704710B4B0FA80FC00FAE9
:1004A0000CF050EA010404BF10BC704749B1CCF114
:1004B000200421FA04F411FA0CF118BF01212143A0
:1004C0000843A3EB0C01CB1D4FEA00614FEA10205B
:1004D00042BF002010BC704700EBC35010440029FD
:1004E000A4BF10BC7047401C490008BF20F00100A9
:1004F00010BC704710B5141E73F1000408DA401CDC
:1005000041F1000192185B411A4301D120F0010032
:1005100010BD2DE9F04D92469B4611B1B1FA81F222
:1005200002E0B0FA80F220329046FFF78DFF0446D9
:100530000F4640EA0A0041EA0B0153465A46084377
:1005400013D0114653EA010019D0C8F140025046B9
:10055000FFF789FF05460E46504659464246FFF7CB
:1005600073FF084305D0012004E020463946BDE86A
:10057000F08D0020054346EAE0762C4337430A9885
:100580006305E40AA0EB08000022FD0A44EA475490
:100590000A3002D500200146E9E70105101969413A
:1005A000DDE9084500196941BDE8F04DA2E72DE9F4
:1005B000FE4F804681EA0300C00F0C46009021F0F8
:1005C000004123F00045B8EB0200A94105D24046A6
:1005D000214690461C460B46024623F0004010433D
:1005E00047D0270DC7F30A00C3F30A510290401AFF
:1005F000019040286BDAC3F3130040F4801B00988D
:10060000924620B10023D2EB030A63EB0B0B019857
:100610005946C0F140025046FFF716FF06460D4608
:1006200050465946019A00F01BF910EB0800614151
:10063000002487EA115284EAE7731A4340D0009AF3
:1006400062B3019A012A4FEA075215DC001B61EBE5
:1006500002014FF0004202EA0752CDE90042001CBD
:1006600041F5801132462B46FFF753FF03B0BDE83A
:10067000F08F40462146F9E7001B61EB0201001CA8
:1006800041F5801300185B412018A2F5001747EBD5
:10069000030140EAD570B6196D4111E06D084FEACB
:1006A000360645EAC0754FEA0752001B61EB0201AE
:1006B000001C41F5801149084FEA300000195141F2
:1006C00032462B4603B0BDE8F04FFFF713BF00984A
:1006D000012240000023D0EB020263EBE07300989C
:1006E00021464FEAE074B8EB000061EB0401E9E752
:1006F00083F000435BE781F0004158E72DE9F04DBE
:1007000081EA030404F0004B21F0004514464FF049
:10071000000A23F0004150EA050220D054EA010209
:100720001DD0C5F30A570246C5F31303C1F31300E6
:10073000C1F30A5640F4801543F48013A7EB060872
:10074000101BD64608F2FD3873EB050002D308F102
:10075000010801E092185B41B8F1000F03DA0020B4
:100760000146BDE8F08D00204FF480110646844616
:100770000EE0171B73EB050705D3121B63EB050394
:1007800006434CEA010C49084FEA300092185B41DD
:1007900050EA0107EDD152EA030012D082EA0400C8
:1007A00083EA0501084305D0101BAB4106D20122A4
:1007B000002306E000224FF0004302E06FF0010248
:1007C00053101AEB06004CEB085110EB0A0041EBFA
:1007D0000B01BDE8F04DFFF78DBEC1F30A52C1F326
:1007E000130140F2FF3341F480119A4202DA0020F3
:1007F0000146704740F233439A42A2F2334202DC90
:100800005242FFF730BEFFF71FBE000030B5041E96
:1008100071F1000404DB4FF00044404264EB01013D
:10082000141E73F1000405DB1C464FF000435242D6
:1008300063EB0403994208BF904230BD064C074D5C
:1008400006E0E06840F0010394E8070098471034A0
:10085000AC42F6D3FFF79CFCA8C00308E8C003082D
:10086000202A06DBCB17203A41FA02F043EAE07374
:1008700006E041FA02F3D040C2F120029140084361
:100880001946704770B58C1810F8015B15F0070316
:1008900001D110F8013B2A1106D110F8012B03E019
:1008A00010F8016B01F8016B5B1EF9D12B0705D421
:1008B0000023521E0DD401F8013BFAE710F8013B6A
:1008C000CB1A921C03E013F8015B01F8015B521E86
:1008D000F9D5A142D8D3002070BDFEE700B58BB09A
:1008E00000200121CDE906010891009001900290BD
:1008F0000390059004900E2009906946054800F089
:1009000007FA044800F002FD0221024800F090F9C5
:100910000BB000BD1C030020014800F0FABA000033
:100920001C03002000B587B018F096FF072817D1E8
:1009300000210C4829F07AFEC82003AB01220021D7
:10094000029083E8070004210748CDE90001074829
:1009500000F1E00390F8442100F5A0712CF0D0FAEA
:1009600007B000BD0CBA0120A9860208A40100202E
:100970001CB5044618F070FF1C2812D1204618F050
:10098000A9FF21F092FDC3B2064807A20821C37156
:10099000684621F093FD05486946D0F83C011BF0FC
:1009A000E9FC1CBD9001002025640000A40100208A
:1009B0001CB5044618F050FF1C2812D1204618F030
:1009C00089FF21F072FDC3B2064807A20821837196
:1009D000684621F073FD05486946D0F838011BF0E0
:1009E000C9FC1CBD9001002025640000A40100206A
:1009F0001CB5044618F030FF1C2812D1204618F010
:100A000069FF21F052FD03B2064807A20821438185
:100A1000684621F053FD05486946D0F834011BF0C3
:100A2000A9FC1CBD9001002025640000A401002049
:100A300010B518F011FF072821D11148C17900EE37
:100A4000101A8179B8EE402A00EE101A90F90510BC
:100A5000F8EE401A00EE101AB0F90A1090F90400EE
:100A6000B8EEC01A00EE101ABDE81040F8EEC00A49
:100A700000EE100A0348B8EEC00A24F0BBBB10BD5C
:100A8000900100200CBA01201CB5044618F0E4FEC9
:100A90001C2812D1204618F01DFF21F006FD43B29C
:100AA000064807A208214371684621F007FD054862
:100AB0006946D0F830011BF05DFC1CBD90010020A0
:100AC00025640000A401002010B518F0C5FE072819
:100AD0000DD107480021044629F0A8FD0A2000F0A6
:100AE00049FC2046BDE81040002126F02EBA10BD7A
:100AF0000CBA01201CB5044618F0AEFE1C2812D119
:100B0000204618F0E7FE21F0D0FC43B2064807A2C9
:100B100008210371684621F0D1FC05486946D0F8E8
:100B20002C011BF027FC1CBD900100202564000057
:100B3000A40100201CB5044618F08EFE1C2812D11A
:100B4000204618F0C7FE21F0B0FC43B2064807A2C9
:100B50000821C370684621F0B1FC05486946D0F809
:100B6000D8001BF007FC1CBD90010020256400008C
:100B7000A401002000B587B018F06EFE072817D139
:100B800000210C4829F052FDC82003AB01220021AE
:100B9000029083E8070004210748CDE900010748D7
:100BA00000F1AC0390F8442100F5A0712CF0A8F9F5
:100BB00007B000BD0CBA0120A9860208A4010020DC
:100BC00010B518F049FE07280BD1064890F903002C
:100BD000BDE8104000EE100A0348B8EEC00A26F047
:100BE000AFB910BD900100200CBA012010B518F06B
:100BF00033FE07280DD107480021044629F016FDD1
:100C00000A2000F0B7FB2046BDE81040032126F083
:100C10009CB910BD0CBA01207047012000F0EABB5E
:100C2000022000F0E7BB102000F0E4BB72B6FEE744
:100C300090F82020012A07D0022A05D0416A41F409
:100C40008021416201207047006842690A43426185
:100C500000207047F0B590F820500468A468012D7A
:100C600005D0022D03D0416A41F480214DE014F0FB
:100C7000406F01D1E50045D5C4F301640125A540CD
:100C80001D608D684FF4C0739DB1CE6835434E68CA
:100C900045EAC605066803EB0417F5514FF4C27523
:100CA000076805EB04150E697E51097D012905D001
:100CB00009E00E88CD6845EA4655EBE701684E59D4
:100CC00046F480764E511179D2F805504FF4C6762D
:100CD00041EA0521056806EB0416A9511178D2F8FE
:100CE00001204FF4C47541EA0221026805EB0415A6
:100CF0005151006803EB0411425842F00102425086
:100D00000020F0BD416A41F4001141620120F0BDB4
:100D100010B590F82020012A07D0022A05D0416A98
:100D200041F480214162012010BD3B48D0F80022EF
:100D300042F00102C0F80022D0F8002222F47C52D6
:100D4000C0F80022D0F800224B6A42EA0322C0F821
:100D500000220A7D02F01F0301229A40D0F81C32C3
:100D60009343C0F81C32CB69B3B9D0F80C3293432B
:100D7000C0F80C328C894B6864F31F434C6900EB5C
:100D8000C404C4F840320C890B6864F31F434C69F7
:100D900000EBC404C4F84432CB69012B16D1D0F85F
:100DA0000C321343C0F80C320C884B6864F31F43B9
:100DB0004C6900EBC404C4F840320C89CB6864F37E
:100DC0001F434C6900EBC404C4F844328B69002B08
:100DD000D0F804320ED01343C0F804320B69002B54
:100DE000D0F8143208D01343C0F81432096A01292C
:100DF00004D008E09343EFE79343F5E7D0F81C12E3
:100E00001143C0F81C12D0F8001221F00101C0F803
:100E10000012002010BD000000640040704770B553
:100E200090F82040012C05D0022C03D0416A41F4F7
:100E3000802128E0046809B32469A40720D04FF476
:100E4000D874056804EB01142D5915F0040595605C
:100E500005682D591AD0ED08556005682C5904F025
:100E60000204D4604FF4DA74056804EB01142E59BF
:100E700006F00F06082E0CD308250DE0E468DCE729
:100E8000416A41F400114162012070BD6D0D156091
:100E9000E3E72D5905F00F05156105682D59C5F3D8
:100EA0000725956105682C59240C54614FF4DC72B8
:100EB000046802EB0112A4581C700468A458240AA8
:100EC0005C700468A458240C9C700468A258120E2C
:100ED000DA704FF4DE72046802EB0112A4581C7140
:100EE0000468A458240A5C710468A458240C9C71FA
:100EF0000468A258120EDA71006829B1016941F044
:100F000020010161002070BDC16841F02001C16075
:100F1000F8E72DE9F05F0546006800244669D0F83F
:100F200004908768D0F80CB0D0F810A0D0F81880E2
:100F3000F10748D0F90714D001218160B80703D523
:100F4000284600F010FA0CE0780702D54FF4006450
:100F500007E0380702D54FF4805402E0284600F03D
:100F600001FAF80516D529684FF480708860B80535
:100F700003D5284600F0F9F90CE0780502D544F4D1
:100F8000005407E0380502D544F4804402E02846C6
:100F900000F0EAF9F80316D529684FF4803088602C
:100FA000B80303D5284600F0E2F90CE0780302D537
:100FB00044F4004407E0380302D544F4803402E0EE
:100FC000284600F0D3F9300707D55FEACB6004D597
:100FD0002968102044F40074C86070074FF00807B7
:100FE00007D55FEA0B7004D52868C760284600F073
:100FF00059F9B00706D52868C068800702D028468E
:1010000000F052F9700607D55FEACA6004D5296876
:10101000102044F480640861B00607D55FEA0A70C6
:1010200004D528680761284600F06CF9F00606D55B
:1010300028680069800702D0284600F064F9B003F0
:1010400008D55FEAC96005D52968102048602846A0
:1010500000F05AF9F00307D55FEA097004D5286853
:101060004760284600F084F9300446D55FEA4970AD
:1010700040D5F00504D55FEAC87001D044F0010402
:10108000B00504D55FEA887001D544F0020470050C
:1010900004D55FEA487001D544F00404300529D531
:1010A00018F0700F26D008F07000402815D006DC2C
:1010B000102809D020280AD0302816D10AE050285C
:1010C0000ED0602811D10EE044F008040DE044F089
:1010D00010040AE044F0200407E044F0400404E077
:1010E00044F0800401E044F480742868816921F0B0
:1010F00070018161296804204860002C05D0686A6D
:10110000204368622846FFF789FEBDE8F09F70B56E
:10111000040003D094F8200010B104E0012070BD59
:10112000204600F081F82068016841F0010101606B
:1011300000F072FA0546052604E000F06DFA401B47
:101140000A2811D820684068C007F6D020680168D6
:1011500021F00201016000F05FFA05460BE000F0AB
:101160005BFA401B0A2806D9606A40F400306062CE
:1011700084F82060D2E7206840688007EFD4207EA2
:101180000128206801683DD021F080010160607E67
:1011900001282068016838D021F040010160A07E5C
:1011A00001282068016833D021F020010160E07E31
:1011B0000128206801682ED041F010010160207FD5
:1011C00001282068016829D021F008010160607FB2
:1011D00001282068016824D021F004010160D4E9CD
:1011E00002010843D4E90412114308436168491E0F
:1011F00008432168C86100206062012084F8200053
:10120000002070BD41F08001C0E741F04001C5E71A
:1012100041F02001CAE721F01001CFE741F00801B9
:10122000D4E741F00401D9E710B586B00446142193
:101230006846FFF71DF818492068884229D11748E9
:101240000021026842F000720260006800F0007045
:10125000059012481038026842F0020202600068ED
:1012600000F0020005904FF4407000900220CDE99C
:10127000010103200390092004906946084800F00A
:10128000C5F800221146142000F034FA142000F0B2
:1012900023FA06B010BD0000006400404038024050
:1012A000000402407047000010B5144B144A00219E
:1012B000FFF7B5FD12481149114B42680C39C2F3D2
:1012C000072048600C313433012809D0022810D19E
:1012D000100E0FD003F14000BDE8104001F06CBBD0
:1012E000100E03D0064805495430F5E7087883F816
:1012F000210010BD087883F8410010BD880100204E
:10130000B8B90120704770477047000070B50446B7
:1013100090F82000012804D0606A40F40020606248
:1013200018E0022084F820002068016821F0010103
:10133000016000F071F905460EE000BF00F06CF9A5
:10134000401B0A2808D9606A40F40030606205201A
:1013500084F82000012070BD20684068C007EDD1EE
:10136000606270BD70477047704770477047704744
:101370007047000070B5044600F04EF90546601C49
:1013800002D004480078044400F046F9401BA04213
:10139000FAD370BD0000002010B50F4A01280CD010
:1013A000022812D0102816D12021104600F026F96C
:1013B0000AA0BDE8104002F0AFBE2021104600F0A8
:1013C0001DF9BDE8104002F017BC2021104600F0C6
:1013D00015F905A0EDE710BD000802404B45595F27
:1013E0003320B0B4CFC20D004B45595F3220B0B4AA
:1013F000CFC20D00044910B50A68024202D008604D
:10140000FFF7CAFF10BD0000143C01402DE9F84F62
:10141000DFF8BCA10022012503264FF00F090AF1D5
:10142000040BAAF1040E00BF0B6805FA02F4234076
:10143000A34270D10F7907F00307012F01D0022FCB
:1014400016D187684FEA420806FA08FC27EA0C071B
:10145000D1F80CC00CFA08FC4CEA070CC0F808C024
:101460004768A7430C79C4F3001494403C4344609C
:101470000C79E443A4070AD0C4684FEA420C06FA88
:101480000CF7BC438F6807FA0CF72743C7600C7949
:1014900004F00304022C12D1D40800EB840CDCF815
:1014A00020405707FF0E09FA07F824EA0804D1F88C
:1014B000108008FA07F848EA0408CCF8208004688D
:1014C0004FEA420C06FA0CF7BC430F7907F003070A
:1014D00007FA0CF7274307604C6814F4403F70D0BC
:1014E0003C4C276847F480472760246822F00307B4
:1014F00004F480440094384C07EB040CDCF80848F2
:1015000097074FEA177809FA08F7BC43334FB842F8
:1015100002D1002724E054E0314FB84201D1012725
:101520001EE0304FB84201D1022719E02E4FB842D9
:1015300001D1032714E02D4FB84201D104270FE059
:101540002B4FB84201D105270AE02A4FB84201D1FA
:10155000062705E0284FB84201D1072700E00827F9
:1015600007FA08F72743CCF80878DAF8004057461E
:10157000D1F804C09C435FEACC2C00D51C433C60EE
:10158000DBF800405F46D1F804C09C435FEA8C2C36
:1015900000D51C433C60DEF800407746D1F804C01B
:1015A0009C435FEA8C3C00D51C433C60084F083FDD
:1015B0003C68D1F804C09C435FEACC3C00D51C4396
:1015C0003C60521C102AFFF42FAFBDE8F88F0000DA
:1015D000083C014044380240003001400000024015
:1015E0000004024000080240000C024000100240CB
:1015F0000014024000180240001C0240426921EA27
:1016000002030A4043EA0241816170470AB18161E5
:1016100070470904FBE7000001488068704700003C
:101620000000002002488168027811448160704700
:10163000000000200B4810B5016841F40071016002
:10164000016841F480610160016841F480710160CA
:10165000032000F06FF80F2000F006F800F024F8E7
:10166000002010BD003C024070B50D4D04464FF403
:101670007A712878B1FBF0F00A490968B1FBF0F003
:1016800000F00AFB48B9102C07D200222146501E58
:1016900000F030F800206C6070BD012070BD0000CB
:1016A0000000002008C001200A4808B5016841F484
:1016B00080410160006800F4804000900548001FF0
:1016C000016841F080510160006800F08050009096
:1016D00008BD000044380240002809DB00F01F026A
:1016E000012191404009800000F1E020C0F8001184
:1016F00070470000F0B40E4B1B680C46C3F3022386
:10170000C3F10705042D00D90425191D072901D2AD
:10171000002300E0DB1E012606FA05F1491E2140E8
:1017200099409E40761E16403143F0BC02F018BD31
:101730000CED00E0064900F0070208684FF6FF03D1
:10174000184040EA0220034A104308607047000036
:101750000CED00E00000FA052DE9F0470E4605000B
:1017600065D0DFF81481D8F80000F7B200F0070068
:10177000B04207D288F80070D8F8000000F00700E7
:10178000B04254D128683D4C810712D5400703D59B
:10179000206840F4E05020602878000703D52068D6
:1017A00040F4604020602068A96820F0F000084301
:1017B00020602878C0072DD0304968680839012892
:1017C00012D0022813D0032811D0096889070029F4
:1017D0002DDA216821F0030101432160FFF71CFF8E
:1017E000814641F2883A0EE009688903EFE709680B
:1017F0008901ECE7FFF710FFA0EB0901514502D981
:101800000320BDE8F0872068696800F00C00B0EBA9
:10181000810FEFD1D8F80010404601F00701B14226
:1018200007D90770006800F00700B04201D001201E
:10183000E7E72878400705D52068E96820F4E050FC
:10184000084320602878000706D52068296920F41D
:10185000604040EAC100206000F038F82168084A82
:10186000C1F30311515CC84006490860064800688E
:10187000FFF7FAFE0020C4E7003C024008380240AF
:10188000E0D3020808C001200400002004480549F4
:1018900000680968044AC1F38221515CC84070475E
:1018A00008C0012008380240F0D302080448054966
:1018B00000680968044AC1F34231515CC84070476E
:1018C00008C0012008380240F0D30208154810B5BE
:1018D000006810F00C02144813D04110042A0FD0F5
:1018E000082A0ED10F4C241F2268236802F03F0201
:1018F0005B0207D52068C0F38810A0FB010106E059
:10190000084610BD2168C1F38811A1FB0001002326
:10191000FEF756FC2168C1F30141491C4900B0FBA8
:10192000F1F010BD083802400024F4002DE9F84F12
:1019300004006ED02078DFF84C93C007A9F10405AD
:101940004AD009F104000168C1F38101012908D0DE
:101950000068C0F3810002280AD1D9F800004002D3
:1019600006D52868800337D560680028E1D033E0C9
:101970006068B0F5803F10D0B0F5A02F286810D077
:1019800020F480302860286820F480202860606877
:10199000A8B1FFF741FE06460DE0286840F480300C
:1019A000F4E740F480202860F7E700BFFFF734FE3B
:1019B000801B642873D828688003F7D50CE0FFF7F4
:1019C0002BFE064605E000BFFFF726FE801B6428BD
:1019D000F0D828688003F7D42078DFF8AC8280073D
:1019E0004FF0000A3ED5A748001D016811F00C0F0A
:1019F00008D00068C0F3810002280BD1D9F800009C
:101A0000400207D42868800716D5E068012800D175
:101A100012E033E1E068B8B10120C8F80000FFF738
:101A2000FBFD064605E000BFFFF7F6FD801B022820
:101A3000C0D828688007F7D52868216920F0F80009
:101A400040EAC10028600DE0C8F800A0FFF7E4FDFF
:101A5000064604E0FFF7E0FD801B02281FD8286837
:101A60008007F7D42078000722D5864F8748616920
:101A7000703771B101210160FFF7CEFD064604E029
:101A8000FFF7CAFD801B022809D838688007F7D500
:101A90000EE0C0F800A0FFF7BFFD064605E082E0BB
:101AA000FFF7BAFD801B02287DD838688007F7D47D
:101AB0002078400768D5DFF8CCB100270BF13C0B4C
:101AC000DBF80000C0000BD4DBF8001041F08051BF
:101AD000CBF80010DBF80000012700F080500090E8
:101AE0006B4E3068C00510D4306840F480703060B0
:101AF000FFF792FD009005E0FFF78EFD0099401A78
:101B0000022850D83068C005F6D55E4EA0686C3605
:101B100001280FD00528306810D020F00100306077
:101B2000306820F004003060A068B8B1FFF774FDA1
:101B300000900FE0306840F00100F4E740F004004E
:101B40003060F7E7FFF768FD0099411A41F28830ED
:101B5000814266D830688007F4D50EE0FFF75CFD5F
:101B6000009007E0FFF758FD0099411A41F28830D4
:101B7000814256D830688007F4D42FB1DBF80010CA
:101B800021F08051CBF80010A069C8B33D49091D70
:101B90000968C1F3810102294AD00228504607D0C2
:101BA000C8F8600000E03CE0FFF736FD04463BE08B
:101BB0004746C8F86000FFF72FFD064605E000BF66
:101BC000FFF72AFD801B02282BD828688001F7D454
:101BD000D4E907010843A16A2E4A490802EB0141F2
:101BE000626A41EA8211084394F82C1040EA0161CC
:101BF000C9F8001001203866FFF70EFD044606E024
:101C00003EE000BFFFF708FD001B022809D8286846
:101C10008001F7D534E000BFFFF7FEFC001B02286F
:101C200002D90320BDE8F88F28688001F4D427E0AA
:101C30000128F7D0D9F80000E26900F48001914250
:101C40001CD1226A00F03F01914217D147F6C071C2
:101C5000626A0140B1EB821F10D1A26A4FF0FF33DC
:101C600000F4403103EB5202B1EB024F06D194F87D
:101C70002C1000F07060B0EB016F01D00120D1E7B3
:101C80000020CFE70438024000004742800E474260
:101C9000007000400000FFFF10B5401EB0F1807FD3
:101CA00001D3012010BD4FF0E02460610F216017C7
:101CB00002F056FA0020A06107202061002010BD2C
:101CC0007047704770B590F83C20012A32D001244B
:101CD00080F83C40022280F83D2003685A689D68E5
:101CE00022F070060A6832435A60134B02689A4227
:101CF00014D0B2F1804F11D0104B9A420ED0104B3D
:101D00009A420BD00F4B9A4208D00F4B9A4205D003
:101D10000E4B9A4202D00E4B9A4204D1496825F0EC
:101D200080031943916080F83D40002180F83C1009
:101D3000084670BD022070BD000001400004004054
:101D400000080040000C0040000401400040014039
:101D50000018004010B5040003D094F83D0010B105
:101D600007E0012010BD002084F83C00204600F070
:101D70001FF8022084F83D00211D206801F08EF834
:101D8000012084F8460084F83E0084F83F0084F87F
:101D9000400084F8410084F8420084F8430084F84D
:101DA000440084F8450084F83D00002010BD000088
:101DB00008B500680B49884212D10B48016841F010
:101DC000100101600068002200F010000090114630
:101DD0003620FFF78FFCBDE808403620FFF77CBCBB
:101DE00008BD0000001000404038024090F83D104F
:101DF000012901D001207047022180F83D100168BF
:101E0000CA6842F00102CA6000681149884214D0D1
:101E1000B0F1804F11D00F4988420ED00E49884250
:101E20000BD00E49884208D00D49884205D00D4993
:101E3000884202D00C49884204D1816801F0070130
:101E4000062903D0016841F00101016000207047BC
:101E5000000001400004004000080040000C004069
:101E600000040140004001400018004070472DE987
:101E7000F04104460068C66805694FF00007A907ED
:101E800013D5B10711D5F91E016101202077206813
:101E900080698007204602D0FFF7E8FF04E000F0E9
:101EA0007EF8204600F07CF82777680716D5700783
:101EB00014D521686FF004000861022020772068A3
:101EC000806910F4407F204602D0FFF7CFFF04E086
:101ED00000F065F8204600F063F82777280715D54D
:101EE000300713D521686FF00800086104202077BF
:101EF0002068C0698007204602D0FFF7B7FF04E0E2
:101F000000F04DF8204600F04BF82777E80616D58C
:101F1000F00614D521686FF01000086108202077C2
:101F20002068C06910F4407F204602D0FFF79EFF72
:101F300004E000F034F8204600F032F82777E80794
:101F400008D0F00706D021686FF001000861204634
:101F500000F028F8280608D5300606D521686FF06D
:101F6000800008612046FFF7ABFE680608D57006C2
:101F700006D521686FF040000861204600F02EF879
:101F8000A8060AD5B00608D521686FF020000861C0
:101F90002046BDE8F041FFF794BEBDE8F0817047F0
:101FA0007047000010B50068094988420FD1012030
:101FB00021F0EAFF074CA088411CA180B0F5FA7F10
:101FC00005D320210448FFF719FB0020A08010BD95
:101FD0000010004000C0012000080240704770B5AA
:101FE000040004D094F84100002510B106E001205F
:101FF00070BD84F84050204600F024F8242084F876
:1020000041002068C16821F40051C160204601F000
:1020100085F92068016921F49041016120684169D6
:1020200021F02A0141612068C16841F40051C1607A
:102030006564202084F8410084F842006563002034
:1020400070BD000010B586B0044614216846FEF746
:102050000FF914492068884221D1134800210268F1
:1020600042F010020260006800F0100005900E4877
:102070001438026842F001020260006800F00100BA
:1020800005904FF4C06000900220CDE901010320CB
:1020900003900720049069460448FFF7B7F906B09B
:1020A00010BD000000100140443802400000024012
:1020B000FEE7F8B50546540820449EB282B2281BBC
:1020C0000F4680B20B46009600F0F4F9381983B23F
:1020D000381B81B22A461046009600F0EBF9F8BD95
:1020E000F0B50F4D059E18E00D4C2A27A41E278041
:1020F000070A2F8028802B2727800F0A2F8029800E
:102100002C272780044604E036F8027B2F80641CCD
:10211000A4B29442F8D9491C89B29942E4D9F0BDDD
:102120000000026030B5094C2A232380050AA31C55
:102130001D80C0B218802B202080080A1880C8B2E9
:1021400018802C2020801A8030BD0000FEFF016026
:102150002DE9F05F8346A2EB0B00DFF840A0401CA6
:102160001E460C4685B24FF02C090AF102080A9F60
:102170000FE02146584624F0D1FEAAF80090002036
:10218000414602E00F80401C80B2A842FAD3641C92
:10219000A4B2B442EDD9BDE8F09F0000FEFF01609B
:1021A0002DE9F04387B0142101A8FEF761F8B14F83
:1021B0000020F871B0480068AF4940F01F00086087
:1021C0004FF400480120CDE9018003900320DFF89F
:1021D000AC92049001A94846FFF718F94CF6B37089
:1021E00001900220029001200390032004900C2013
:1021F000059001A9A248FFF709F94FF680700190F8
:102200000220029001200390032004900C200590EE
:1022100001A99C48FFF7FAF897480830006840F099
:1022200001019548083001604FF0204500202860EA
:102230006860C5F80401286840F480502860286868
:1022400040F480402860286840F0100028606868EA
:102250006860686840F00F006860686840F470501B
:102260006860D5F80401C5F80401D5F8040140F010
:102270000900C5F80401D5F8040140F40060C5F870
:102280000401286840F001002860322006F0EAFAD4
:102290007D4E00203080B41C2080322006F0E2FA0F
:1022A000002023F0D5FBD320308020882088208890
:1022B000B88080B24FF6FF7101EA00212088014307
:1022C000B98072A001F028FFD5F8040120F00F00BA
:1022D000C5F80401D5F8040140F40070C5F8040104
:1022E000D5F8040120F47060C5F80401D5F80401A4
:1022F00040F00300C5F80401CF203080002020808A
:10230000C122228030202080ED2131806421218073
:10231000032121801221218081212180E821318027
:1023200085212180102121807A232380CB233380B3
:10233000392323802C2323800023238034232380EC
:1023400002232380F723338020232380EA23338052
:10235000002323802380C02333801B2323803280EB
:1023600001222280C522328020802080C720308038
:10237000B720208036203080482020803A203080CE
:1023800055202080B1203080002020801A2020801D
:10239000B62030800A232380A2202080F2203080C3
:1023A000002020802620308001202080E020308006
:1023B0000F2020802A22228028252580082525809C
:1023C0004FF00E0CA4F800C0258054252580A925C7
:1023D000258043252580238020800023238023809F
:1023E00023802380E123338000232380152323804F
:1023F000172323800723238011232380062525808C
:102400002B2525804FF0560CA4F800C04FF03C0C53
:10241000A4F800C04FF0050CA4F800C02180208073
:102420003F21218021802080358000202080208055
:102430000120208021803280002020802080208088
:10244000EF2020803380782006F00CFA292030809D
:10245000002000F07DF8002000907B883A8801463B
:10246000FFF776FEC9F818800120F87107B0BDE8C3
:10247000F083000014C00120303802400000024008
:10248000000C024000100240FEFF0160CFD4CABE23
:10249000C6C1BCECB2E22020202020202020202039
:1024A0002020202020D0BEC6AC49443A2025780DFB
:1024B0000A0000002DE9FE4F161ACDE900104FF07A
:1024C00000085D1A47464FF0FF30002E02DD4FF046
:1024D000010102E003D14FF000018B4602E0834688
:1024E000C6F10006002D02DD4FF0010002E003D12D
:1024F0004FF00000824602E08246C5F10005AE4280
:1025000001DD344600E02C46601C4FF000090290CB
:1025100019E000980C9A81B2019880B2FFF702FE90
:10252000B0442F44A04504DD0198A8EB04085844AA
:102530000190A74203DD00983F1B5044009009F131
:1025400001001FFA80F902998945E2DDBDE8FE8F9E
:1025500070B50023F02423494FF4A0751A460128D2
:1025600003D078B103280DD000E0062001268E713B
:102570000D804C8078B1032808D0052808D00628A3
:1025800008D008E08A710C804D80F3E7C02302E098
:10259000602300E0A02343F00804134B362018808A
:1025A000981C0480A4060C884D8802D5AC4202D346
:1025B00003E0AC4201D90D804C802A241C800280AB
:1025C00002800C88641E250A0580E4B204802B2456
:1025D0001C80028002804988491E0A0A0280C9B212
:1025E000018070BD14C00120FEFF01602DE9FC5F79
:1025F000DFF880800546DDE90CBA98F807001C4634
:1026000016460F46002833D0A9460C2C2DD0102C8E
:102610002BD0182C29D0202C27D0182425E000BF3F
:10262000B8F80010091BA94202DA39194D468FB2D9
:10263000B8F80200001BB8421ADB7F2A23460AD2F0
:1026400039462846CDE900AB06F06AF905EB54009F
:1026500085B2761C09E0324639462846CDE900AB02
:1026600006F0D0F9281985B2B61C3278002AD7D1E5
:10267000BDE8FC9F14C00120104810B50E49016050
:102680000621416000214FF440328160C0E903120D
:102690004FF4801242610176012242768176C17642
:1026A00001774177FEF733FD002803D0BDE81040E5
:1026B000FEF7BCBA10BD0000006400401C030020FF
:1026C0002DE9F04387B014216846FDF7D1FD374866
:1026D0000026016841F080010160016801F080017D
:1026E0000591016841F001010160016801F00101FB
:1026F0000591016841F004010160016801F00401E5
:102700000591016841F0020101600068284F00F066
:1027100002000590002220213846FEF777FFDFF8FF
:102720009490002204214846FEF770FF01244FF4E4
:102730008810CDE90040DFF88080022569460295C7
:102740004046FEF763FE122000904FF40410CDE9DE
:10275000010469464046FEF759FE20208DE87100CD
:1027600069463846FEF752FE04208DE8710069463E
:102770004846FEF74BFE002202210620FEF7BAFF74
:102780000620FEF7A9FF002202210720FEF7B2FF74
:102790000720FEF7A1FF002202210A20FEF7AAFF70
:1027A0000A20FEF799FF07B0BDE8F08330380240F9
:1027B0000008024000040240000002401CB5002452
:1027C0000F4800940D49019401605321C0E90114A0
:1027D00040F2E731C16080218161FFF7BBFA08B1A7
:1027E000FEF724FA0094694605480194FFF76AFA57
:1027F000002801D0FEF71AFA1CBD000000100040AE
:10280000440300200C4810B50A4901604FF4E1313F
:102810004160002181600C22C160C0E90412816125
:10282000C161FFF7DCFB002803D0BDE81040FEF7D4
:10283000FDB910BD001001408C030020FEE7000030
:1028400000B587B017F008F8072817D100210C4809
:1028500024F07BFBC82003AB01220021029083E817
:10286000070003210748CDE90001074800F5A273DE
:1028700090F8E02000F1DC012AF042FB07B000BD37
:102880000CBA01202D700208A401002000B587B009
:1028900016F0E2FF072817D103210C4824F055FB5E
:1028A000C82003AB01220021029083E80700032126
:1028B0000748CDE90001074800F5A27390F8AC2065
:1028C00000F1A8012AF01CFB07B000BD0CBA0120E2
:1028D0001D800208A401002000B587B016F0BCFFDF
:1028E000072817D101210C4824F02FFBC82003AB87
:1028F00001220021029083E8070003210748CDE967
:102900000001074800F5A27390F82C2000F128017F
:102910002AF0F6FA07B000BD0CBA0120918C02082B
:10292000A401002000B587B016F096FF072817D144
:1029300002210C4824F009FBC82003AB012200212E
:10294000029083E8070003210748CDE9000107480A
:1029500000F5A27390F86C2000F168012AF0D0FA1B
:1029600007B000BD0CBA012079950208A40100202F
:1029700000B587B016F070FF072815D101210B486C
:1029800024F0E3FAC82003AB01220021029083E87F
:10299000070007210648CDE90001064800F5A273AB
:1029A000027901462AF0ACFA07B000BD0CBA01204A
:1029B0005D9E0208A401002070B5044608880D46FB
:1029C000164640BA1021DFED170A9FED170A2AF0CC
:1029D000BAFA84ED010A6888102140BAF3EE0E0AB3
:1029E000BBEE0E0A2AF0AFFA84ED020AA888102185
:1029F00040BAF2EE080ABAEE080A2AF0A4FA84ED08
:102A0000030AE88840BAFDF7E0FC9FED081B53EC91
:102A1000112BFDF768FCFDF7E5FC2061C6F30440CF
:102A2000A07670BD00003444000034C49A9999998E
:102A30009999B93FFEE7704700B587B016F00CFFD3
:102A4000072817D100210C4827F0F0FDC82003AB60
:102A500001220021029083E8070004210748CDE904
:102A60000001074800F12C0390F8442100F5A07103
:102A70002AF046FA07B000BD0CBA0120A986020868
:102A8000A40100201CB5044616F0E6FE1C2811D156
:102A9000204616F01FFF1FF008FD03B2064807A2EC
:102AA0000821038168461FF009FD05486946C06D8D
:102AB00019F060FC1CBD000090010020256400009E
:102AC000A401002010B516F0C7FE072814D10C4849
:102AD000DFED0A1AB2EE001A0178B0F9080000EE34
:102AE000101ABDE81040F8EE400A00EE100A054842
:102AF000B8EEC00A24F046BA10BD00000000204223
:102B0000900100200CBA01201CB5044616F0A4FE6A
:102B10001C2811D1204616F0DDFE1FF0C6FCC3B202
:102B2000064807A20821037068461FF0C7FC054845
:102B30006946806D19F01EFC1CBD0000900100204C
:102B400025640000A401002010B516F085FE0728BA
:102B50000DD107480021044627F068FD0A20FEF742
:102B600009FC2046BDE81040012124F0EEB910BD5B
:102B70000CBA0120704700001CB500781E4B1843AA
:102B80001E4B58608DF80010080A8DF801000020D7
:102B90008DF802008DF80300662A02D0732A13D044
:102BA0001EE010EE100A1649020E030C0A704B705C
:102BB000040A8C70C8708DF804008DF805408DF8FB
:102BC00006308DF807200BE0BCEEC00A10EE101A9C
:102BD0008DF804108DF805008DF806008DF80700BB
:102BE000074B6A46083B05490648FEF733F80120C3
:102BF000FEF7C0FB1CBD000000FD0012D4B901208F
:102C0000840100201C03002000B587B016F024FECC
:102C1000072813D1C82003AB01220021029083E8CA
:102C2000070003210648CDE90001064800F16C03C6
:102C300090F8442100F5A0712AF062F907B000BDB8
:102C4000A9860208A40100201CB5044616F004FE63
:102C50001C2812D1204616F03DFE1FF026FC43B280
:102C6000064807A20821837068461FF027FC054824
:102C70006946D0F88C0019F07DFB1CBD9001002046
:102C800025640000A401002000B587B016F0E4FD23
:102C9000072817D100210C4827F0C8FCC82003AB37
:102CA00001220021029083E8070004210748CDE9B2
:102CB0000001074800F16C0390F8442100F5A07171
:102CC0002AF01EF907B000BD0CBA0120A98602083F
:102CD000A401002010B516F0BFFD07280BD106484F
:102CE00090F90100BDE8104000EE100A0348B8EE6C
:102CF000C00A24F074B910BD900100200CBA012064
:102D00001CB5044616F0A8FD1C2812D1204616F06A
:102D1000E1FD1FF0CAFB43B2064807A20821437039
:102D200068461FF0CBFB05486946D0F8880019F0CB
:102D300021FB1CBD9001002025640000A40100209F
:102D400010B516F089FD07280DD10748002104466B
:102D500027F06CFC0A20FEF70DFB2046BDE8104072
:102D6000022124F0F2B810BD0CBA0120FEF75ABCC3
:102D700030B593B030216846FDF77AFA14210CA8DB
:102D8000FDF776FA1E480025016841F08051016088
:102D9000006800F0805011901A48016841F48041A9
:102DA00001600068022400F480401190012000902E
:102DB000000401908001CDE90640082008904FF4FE
:102DC000A870CDE9090404200B906846FEF7AEFD1B
:102DD00008B172B6FEE70CA90F2081E831004FF46C
:102DE000A0500F904FF48050109005210CA8FEF7D2
:102DF000B3FC002801D072B6FEE713B030BD00006E
:102E0000403802400070004070B5194C2068194AE3
:102E100010F00C01184804D05510042903D00829DB
:102E200003D002601BE0056019E01149091F0B681F
:102E3000C3F380560B6803F03F0316B1B5FBF3F202
:102E400001E0B2FBF3F20B680968C3F388135A433D
:102E5000C1F30141491C4900B2FBF1F10160216855
:102E6000064AC1F30311515C0268CA40026070BD9A
:102E7000083802400024F40008C00120E0D3020812
:102E80000248016841F470010160704788ED00E07C
:102E90000148FEF7ECBF000044030020F0B50268D3
:102EA000294C2A4D2A4E2B4F2B4B4FF0804CA042E1
:102EB00009D0604507D0A84205D0B04203D0B8423F
:102EC00001D0984204D122F0700E4A6842EA0E0204
:102ED000A0421BD0604519D0A84217D0B04215D0EF
:102EE000B84213D0984211D01C4DA8420ED01C4DB0
:102EF000A8420BD01B4DA84208D01B4DA84205D0BC
:102F00001A4DA84202D01A4DA84203D122F44075AE
:102F1000CA682A434D6922F080022A4302608A6807
:102F2000C2620A688262A04201D0984201D1096956
:102F30000163012141610169C90703D0016921F0E1
:102F400001010161F0BD00000000014000040040EB
:102F500000080040000C0040000401400040014017
:102F6000004401400048014000180040001C00409F
:102F7000002000400149002008807047D403002051
:102F800000487047D60300200148008870470000C1
:102F9000D4030020F0B50646474885B0016841F0EB
:102FA0001001016044481438016841F001010160DA
:102FB000424C0025E560FFF727FF414F3868400885
:102FC00000EE100A3001B8EE401A00EE100AB8EE1A
:102FD000400AC1EE000ABCEEE00A10EE100A80B210
:102FE00000EE100AB8EE400A30EEC00AF3EE000A16
:102FF00020EE200ABCEEC00A10EE101A89B241EA97
:103000000010A060E06840F00400E060E06840F07C
:103010000800E060E06820F48050E06025612069ED
:1030200020F4405020616561606920F040006061DB
:10303000606920F08000606114216846FDF718F98E
:103040004FF4C06000900220019001200290032004
:1030500003900720049069461A48FEF7D7F900222A
:1030600011462520FEF746FB2520FEF735FBE068DC
:1030700020F08000E060E06840F02000E060E06860
:1030800040F01000E0606FF0F0002060E06840F475
:103090000050E0600CA001F03FF8FFF7B5FE1849C2
:1030A0003868B0FBF1F117A001F036F831461DA0E9
:1030B00001F032F805B0F0BD443802400010014084
:1030C00008C00120000002400D0D0D3D3D3D3D3D7D
:1030D0003D3D3D3D3D3D202053544D33324634303F
:1030E00037564520CDE2C9E8B3F5CABCB1A8B8E669
:1030F000203D3D3D3D3D3D3D3D3D3D3D0D00000004
:1031000040420F00CFB5CDB3CAB1D6D3C6B5C2CAFF
:10311000202020202020202020202564204D487AB7
:103120000D000000554152543120B3F5CABCBBAF6D
:10313000C5E4D6C320202020202025642D4E6F6EAC
:10314000652D382D313B20D2D1CDEAB3C9B3F5CAB4
:10315000BCBBAFC5E4D6C3A1A2CAD5B7A2C5E4D64D
:10316000C30D0000F0B5124B0022A3F12E044FF462
:103170007D67164610E0B3F8A2CF855C0CF80450CA
:10318000B3F8A25F6D1CADB2A3F8A25FBD4201D13E
:10319000A3F8A26F521C92B28A42ECD30548C168D0
:1031A000090603D4C16841F08001C160F0BD000090
:1031B000D4130020001001402DE9F0472748016892
:1031C0004FF00006090600F1040520D523490C3113
:1031D0000A6812061BD52248A0F12E03B0F8A42FCE
:1031E000D35C2B60521C92B2A0F8A42FB2F5007FE2
:1031F00001D1A0F8A46FB0F8A42FB0F8A20F8242BA
:1032000003D1086820F080000860BDE8F0870168FD
:10321000144C8A064FF480610AD5E088884201D3B5
:103220002868F2E72968104A1154401CE080ECE756
:1032300080460068C006E8D50C4F89460A463E80A5
:103240000949B81CFCF7EDFFE0883880E680494664
:103250000548FDF70DF8D8F80000E1E7004C004004
:10326000C67200200C00002058EF0020C66200202B
:103270002DE9F041244C20684FF0000600061ED5D1
:10328000E06800061BD52148A0F12E02B0F8A41F6B
:103290008A5C6260491C89B2A0F8A41FB1F5007F66
:1032A00001D1A0F8A46FB0F8A41FB0F8A20F81421A
:1032B00003D1E06820F08000E060BDE8F081206884
:1032C000134D80064FF480610AD52889884201D3C6
:1032D0006068F2E761680F4A1154401C2881ECE7EE
:1032E0002068C006E9D50C4F88460A463E80094949
:1032F000B81CFCF796FF288938802E814146054886
:10330000FCF7B6FF2068E3E7005000406C92002015
:103310000C00002058F500206C82002070B5044697
:1033200000680169E26821F440511143016121699B
:10333000A068E26908436169114308432168CA68CB
:1033400049F20C639A430243CA6020684169A2694A
:1033500021F440711143416131492068884202D013
:103360003049884202D1FEF7A1FA01E0FEF78EFA59
:10337000E2690023192164253226B2F5004F626804
:1033800028D0A0FB0101930F9200FCF719FF014622
:10339000B0FBF5F06FF01802504301EB800006EB34
:1033A0000010B0FBF5F000F0F002B1FBF5F002EB1D
:1033B0000012B1FBF5F06FF01803584301EB8000E9
:1033C00006EB0010B0FBF5F000F00F002168104490
:1033D000886070BDA0FB010192185B41FCF7F0FE14
:1033E0000146B0FBF5F00201B1FBF5F06FF01803F8
:1033F000584301EB800006EBC000B0FBF5F000F095
:10340000F80002EB4002B1FBF5F0584301EB8000FD
:1034100006EBC000B0FBF5F000F00700D6E70000B7
:1034200000100140001401402DE9F04727480168D1
:103430004FF0000609064FF47D631DD5C1680906EB
:103440001AD52349A1F12E04B1F8A42F145D4460CC
:10345000521C92B2A1F8A42F9A4201D1A1F8A46FF4
:10346000B1F8A42FB1F8A21F8A4203D1C16821F09C
:103470008001C160BDE8F0870168174D8F06154ACD
:103480002C884FF400110AD511609C4201D340688A
:10349000F0E7406811490855641C2C80EAE7804633
:1034A0000068C006E6D511600D4F99461A463E8069
:1034B0000A49B81CFCF7B5FE3C802E8049460748F7
:1034C000FCF7D6FE4046D8F80010E0E700100140B7
:1034D000D4130020180802400C000020B8C10020BE
:1034E000D40300202DE9F047274801684FF000067B
:1034F000090600F1040520D523490C310A6812069B
:103500001BD52248A0F12E03B0F8A42FD35C2B606A
:10351000521C92B2A0F8A42FB2F5007F01D1A0F8FE
:10352000A46FB0F8A42FB0F8A20F824203D10868AC
:1035300020F080000860BDE8F0870168144C8A061E
:103540004FF480610AD56088884201D32868F2E789
:103550002968104A1154401C6080ECE780460068DE
:10356000C006E8D50C4F89460A463E800949B81C7A
:10357000FCF757FE60883880668049460548FCF7AE
:1035800077FED8F80000E1E7004400407A330020DD
:103590000C00002058E100207A2300202DE9F0479C
:1035A000274D28684FF00007000605F104064FF488
:1035B00080631FD522490C31086800061AD52148BE
:1035C000A0F12E04B0F8A42F145D3460521C92B206
:1035D000A0F8A42F9A4201D1A0F8A47FB0F8A42F9C
:1035E000B0F8A20F824203D1086820F08000086082
:1035F000BDE8F0872868144C80060AD5A088984258
:1036000001D33068F4E73168104A1154401CA0809F
:10361000EEE72868C006EBD5B8460D4F99461A4626
:10362000A7F800800949B81CFCF7FBFDA08838808A
:10363000A4F8048049460548FCF71AFE2868E0E72C
:1036400000480040205300200C00002058E70020D4
:10365000204300202DE9F047274801684FF000067D
:10366000090600F1040520D523490C310A68120629
:103670001BD52248A0F12E03B0F8A42FD35C2B60F9
:10368000521C92B2A0F8A42FB2F5007F01D1A0F88D
:10369000A46FB0F8A42FB0F8A20F824203D108683B
:1036A00020F080000860BDE8F0870168144C8A06AD
:1036B0004FF480610AD56089884201D32868F2E717
:1036C0002968104A1154401C6081ECE7804600686C
:1036D000C006E8D50C4F89460A463E800949B81C09
:1036E000FCF79FFD60893880668149460548FCF7F4
:1036F000BFFDD8F80000E1E70014014012B200203D
:103700000C00002058FB002012A20020FEE7000061
:1037100070B52B4886B0016841F004010160016872
:1037200041F00101016026481430016841F48051E4
:10373000016014216846FCF79BFD01244FF40055FD
:103740000326CDE90054CDE9024669461D48FDF740
:103750005DFE1C4818300560E020009001A90220A1
:1037600081E851000520049069461748FDF74EFE98
:1037700016480460016841F002010160016841F0EF
:10378000040101600168016001680160016841F4A1
:1037900000710160016841F480710160016801609D
:1037A000016841F04001016022F0A2F804F080F9C4
:1037B00007480078002800D0012006B070BD000046
:1037C0003038024000080240000002400030014052
:1037D000E4C001202DE9F0410446134815460F4688
:1037E000007800281DD0114E4FF0005030600320AB
:1037F00023F04EFBC4F3074023F04AFBC4F3072039
:1038000023F046FBE0B223F043FB002404E0FF205A
:1038100023F03EFB3855641CAC42F8D34FF4005003
:103820003060BDE8F0810000E4C0012018080240CB
:1038300030B413464A0700D0012202EBD10212FB3A
:1038400001F2D4B202784078812A09D3402807D304
:10385000FF2805D0FF2A03D07F280DD240380CE086
:103860000020014604E000BF401C03F8011BC0B269
:10387000A042F9D330BC70474138813AD2B2C2EB92
:103880004215C0B205EB821200EB420060430C29E6
:103890000CD010290FD0182911D02029EAD11946AF
:1038A000094B2246184430BCFFF794BF2246194604
:1038B00000F52000F7E719462246044BF2E71946C7
:1038C0002246034BEEE7000000C2CE0060C4A80011
:1038D000E074B4002DE9F05F8A46334915460A7852
:1038E000002A5ED04219B2F5200F02D94A78012A87
:1038F00036D0C0F30B07DFF8B0B0C7F580544FEAFD
:1039000010390BF1180BA54200D82C464FF4805803
:103910004FEA0930064642465946FFF75BFF224808
:103920000078D8B129F0DAFC00F05CF81F484FF0BD
:1039300000510160202023F0ABFAC6F3074023F0CA
:10394000A7FAC6F3072023F0A3FA002023F0A0FA79
:1039500016484FF40051016000F044F800200CE0DC
:10396000BDE8F05F12A000F0D7BB00BF1AF800302E
:103970003A18401C0BF8023080B2A042F6D3304611
:103980004246594629F0B8FCAC420AD0281BA24452
:10399000002785B2444609F10109A542B8D82C4652
:1039A000B6E7BDE8F09F0000E4C00120180802401F
:1039B000D2AAD0B4C8EBB5C4CAFDBEDDD4DAD7D61E
:1039C000BFE2CAFDBEDDB4E6B4A2C7F8C4DAA3AC58
:1039D000D2D1CCF8B9FDB1BEB4CEB2D9D7F721213E
:1039E0000D00000010B5084C4FF00050206005207D
:1039F00023F04EFAFF2023F04BFAC007FAD14FF420
:103A00000050206010BD000018080240024900B1BB
:103A1000012008707047000014020120014840880E
:103A200070470000140201200148808870470000A0
:103A300014020120F0B58BB00D460646174614213E
:103A40006846FCF715FC444C4248206266814348B6
:103A5000A5812777016841F01F010160012503203E
:103A60004FF40057CDE90250CDE9007569463C4856
:103A7000FDF7CCFC3A4E183637600095394D694653
:103A80002846FDF7C3FC0420009069462846FDF750
:103A9000BDFC08200027CDE9000769462846FDF750
:103AA000B5FC1020CDE9000769462846FDF7AEFCBD
:103AB0004FF48030A8618000A861C00230601421FA
:103AC00005A8FCF7D5FB217F002011B1012902D008
:103AD00003E0206A01E0206A1430142205A9FFF7F0
:103AE00079FE9DF814004F2803D19DF815004B284E
:103AF00018D0207F28B3DFED1C0A9FED1C0A6FF061
:103B00002C014FF4A97000BF29F0B4FB42F21070F1
:103B100004F09EFE1749164808600120FFF776FF63
:103B20000BB0F0BD0C48DDF816103C38C164BDF890
:103B30001A102183DDF81E100165BDF82200608394
:103B4000EBE76FF01201481CDFED0B0A9FED0B0A4B
:103B5000DAE700009CFF9F00140201203038024089
:103B6000000C02400010024065A79F3D9C16BC3D22
:103B70000400FA050CED00E0355EBA3D713D8A3D6A
:103B80002DE9F041194C2078002825D0184800690B
:103B9000184F40F30010401C7870012824D121F008
:103BA00021FE02F079FE6688A58821F01BFE02F056
:103BB00073FE6088A188864201D9321A00E0821B18
:103BC000D3B28D4201D96A1A00E04A1BD2B2032B4C
:103BD00001D8032A02D90020BDE8F0813044400812
:103BE000608068184008A0807878F5E7140201200A
:103BF000001002401CC001202DE9F04FDFF89C832B
:103C00001E242DED028B9BB0B8F80A70B8F80C603A
:103C1000E3A000F081FAE9A000F07EFA0025334627
:103C20003A46294628460095FEF792FA4FF6FF7964
:103C3000CDE900951023E9A25A211420FEF7D6FC05
:103C4000CDE900951023EBA273211420FEF7CEFCE2
:103C5000A8F80650A8F808500120FFF7D7FE4FF645
:103C6000E07B21465B4614220846FEF722FA4546D1
:103C700021F0B8FD0028FBD0E8880028F8D000200B
:103C8000FFF7C4FEE8880F90288921461190A846C6
:103C9000002314220846FEF70CFADDA103A80F9AB0
:103CA00000F04AFA0025A4F11000CDE900B581B278
:103CB000A4F10C09DA461FFA89F00C2303AAFEF7D7
:103CC00095FCD5A103A8119A00F036FACDE900A51C
:103CD0001FFA89F00C2303AA2146FEF787FCD0487F
:103CE00004F0B6FDA7EB04091FFA89F00C90A8F8C0
:103CF0000650A8F808500120FFF788FE534614220A
:103D000021460C98FEF7D5F94FEA080521F06AFD27
:103D10000028FBD0E8880028F8D00020FFF776FEC6
:103D2000E888109028891290AA4600231422214680
:103D30000C98FEF7BEF9B6A103A8109A00F0FCF9A2
:103D4000A4F1100081B200250C98CDE900B5A0F1D6
:103D50000C081FFA88F00C2303AAFEF747FCAEA15B
:103D600003A8129A00F0E8F9CDE900B51FFA88F02F
:103D70000C2303AA2146FEF739FCA94804F068FD8C
:103D8000A6EB04081FFA88F00290AAF80650AAF8D9
:103D900008500120FFF73AFE5B46142220460299A4
:103DA000FEF787F94FEA0A0521F01CFD0028FBD039
:103DB000E8880028F8D00020FFF728FEE888159052
:103DC00028891490AA460023142220460299FEF75F
:103DD00070F98FA103A8159A00F0AEF9029800259A
:103DE00010384FF6E07B81B2CDE900B5A4F10C00AC
:103DF000179080B20C2303AAFEF7F8FB86A103A854
:103E0000149A00F099F9CDE900B517980C2380B207
:103E100003AA0299FEF7EAFB814804F019FD1FFA94
:103E200089F00C901FFA88F00290AAF80650AAF8C0
:103E300008500120FFF7EAFD5B46142202990C9816
:103E4000FEF737F94FEA0A0521F0CCFC0028FBD039
:103E5000E8880028F8D00020FFF7D8FDB5F806A0C4
:103E6000B5F808B00023142202990C98FEF721F946
:103E7000524667A103A800F05FF900214FF6E070F9
:103E8000CDE9000102980C23103881B20C9803AAE6
:103E90000C381A9080B2FEF7A9FB5A465EA103A81F
:103EA00000F04AF900214FF6E070CDE900011A98C0
:103EB0000C2380B203AA0299FEF798FB594804F03C
:103EC000C7FC15990F98109A084402EB0A014A089A
:103ED000DDE911131944DDF850C040080CEB0B0369
:103EE000A4EB090C00EE10CAA0EB020CA4EB080432
:103EF000F8EEC00A00EE10CA49085B08B8EEC00A26
:103F00001044C0EE808A00EE104ACC1AF8EEC00AC7
:103F100000EE104AB8EEC00A80EE808A00EE100A69
:103F2000B8EE401A00EE107AF8EE400AB6EE000A3B
:103F300048EEC10A60EE800AFDEEE00A10EE900A3B
:103F400004B2C81800EE900AB8EE601A00EE906A4B
:103F5000F8EE600A48EE410A20EE800AF0EE480AC8
:103F6000BDEEC00A10EE100AB0EE680A06B2314685
:103F7000204629F07FF9C5ED048A2C8385ED058A5A
:103F80006E8329A0296A00F0C7F8374935480860D0
:103F90001BB00020BDEC028BBDE8F08F14020120A5
:103FA0000D0DB4A5C3FEC6C1BFAACABCD6D8D0C227
:103FB000D0A3D7BC2E2E2E2E0D000000C7EBCAB901
:103FC000D3C3B1CABCE2A3ACD2C0B4CEB5E3BBF795
:103FD000BBC6C9ABB9E2B1EA210D0D00506C6561F9
:103FE000736520757365207468652070656E202C7C
:103FF00020000000616E6420636C69636B206F6E4B
:10400000207468652072657469636C652021000006
:10401000583A256400000000593A25640000000069
:1040200000350C00801A06003E3E3ED0A3D7BCCD22
:10403000EAB3C92120B1C8C0FDCFB5CAFDA1A2C64F
:10404000ABD2C6D6B5D2D1B4E6C8EBC4DAB2BF465D
:104050004C4153482C20B5D8D6B73A307825580D66
:104060000D0000000400FA050CED00E000B587B07B
:1040700015F0F2FB072817D100210C4826F0D6FADC
:10408000C82003AB01220021029083E80700082129
:104090000748084BCDE9000103F5A07193F84421CE
:1040A00018461B1D28F02CFF07B000BD0CBA0120DC
:1040B000A9860208A401002010B515F0CDFB072841
:1040C00011D109480121044622F03FFF2046BDE8F6
:1040D0001040DFED061AB2EE001AF1EE040A9FED71
:1040E000040A22F04FBF10BD0CBA0120000020428C
:1040F0000000000010B515F0AFFB072809D10548F6
:104100000021044626F092FA2046BDE8104022F035
:1041100075BF10BD0CBA01200FB4054B10B503A933
:10412000044A029801F0F2FD10BC5DF814FB000097
:10413000CD090108180000200FB4084B10B504A9E0
:1041400002AA039801F0E2FD044602A9002002F051
:1041500074F9204610BC5DF814FB00003B640008B5
:104160000907090E002804DB00F1E02080F80014A4
:10417000704700F00F0000F1E02080F8141D704738
:1041800002E008C8121F08C1002AFAD17047704720
:10419000002001E001C1121F002AFBD1704770B559
:1041A000044600256FF02F0608E02068411C2160BE
:1041B000007805EB850106EB410145182068007881
:1041C00000F0C6F80028F0D1284670BD2DE9FF5F49
:1041D00082B00021DDE90430020DDDF840B0034378
:1041E00018D044F61050A2F2FF3242431514119831
:1041F00001281FD0A5EB0B00401C5FEA000A4FF01E
:1042000000064E4FDFF83891B046504615D5CAF13A
:10421000000413E0119801244AA3012801D16FEA98
:104220000B010298119AC0E90031C0E9024206B0C0
:10423000BDE8F09FCBF10000DFE704460021404AD3
:10424000491842EB0450CDE9001012E0E00707D016
:1042500032463B4640464946FCF745F8804689468B
:1042600032463B4610461946FCF73DF806460F46D7
:104270006410002CEAD1DDE90401DDE90023BAF184
:10428000000F06DAFCF72FF842464B46FCF72BF8F6
:1042900005E0FCF733FA42464B46FCF72FFA04469A
:1042A0000E460022284BFCF7B1FA03D84FF0FF303E
:1042B000014607E00022254B20463146FCF777F9FE
:1042C000FCF78BFA102409E0002C0ADB0A220023F9
:1042D000FBF776FF039B30321A55641E50EA010249
:1042E000F2D1641C039AC4F111031444119A012AF7
:1042F00003D0012208430DD10AE0084304D0002076
:104300004FF0110B119072E7A3EB0B056D1E0DE042
:104310005B4504DD4FF0000205F1010504E003DA1E
:104320004FF00002A5F10105002AECD00298119986
:10433000C0E90231C0E9004579E7000000001440FF
:104340000000F03F300000000000F0430000E03FBC
:104350003038092801D8012070470020704700003C
:1043600010B54421074800F085FF00221E210648B1
:104370001FF064FE054CA06002F040FC002020709D
:1043800010BD0000EC030120B16C00087CC00120CE
:104390002DE9F0470E46814617461146304600F09B
:1043A0001CF94FF0FF3A00287DD0002239463046F4
:1043B00000F0BFF800284FF0000075D1B6F9048076
:1043C000B6F900305246A8EB0301491C0AFA81F104
:1043D0000FFA81FAB6F906C0B6F90210ACEB010C7F
:1043E0000CF1010C02FA8CF2B7F802C012B2ACEB7D
:1043F000010C0FFA8CFCBCF1000F0EDD63F30F040F
:1044000068F30F0501EB0C0061F31F4460F31F45D7
:10441000C9F800400120C9F80450B7F906107388A4
:10442000CB1AD21A12B2002A13DDB6F9063099421D
:104430000FDA338863F30F04B38861F31F4463F327
:104440000F05114461F31F4509EBC001401C0C60CE
:104450004D60B7F90220B6F902108A4200DD11461C
:10446000B7F90630B6F90620934200DA1A463B88BF
:10447000B6F900C0521AA3EB0C031BB212B2002B08
:1044800010DD002A0EDD634463F30F058B1863F320
:104490001F456CF30F0409EBC00361F31F441C605C
:1044A0005D60401C01E01AE017E0B7F9043036887F
:1044B0009F1BAAEB070636B2002E0EDD63F30F0436
:1044C00061F31F44334463F30F05114461F31F4547
:1044D00009EBC001401C0C604D60BDE8F087504600
:1044E000FBE770B5B1F90030B2F90040A34200DC3F
:1044F00023460380B1F90250B2F90240A54200DD23
:104500002C464480B1F90460B2F90450AE4200DA9E
:1045100035468580B1F90610B2F90620914200DBDC
:104520001146C1800120AB4201DC8C4200DD00203D
:1045300070BDF8B50D460446B0F90000B1F90010A1
:104540001646884247DBB4F90210B5F902209142C1
:1045500041DBB4F90410B5F9042091423BDCB4F915
:104560000610B5F90620914235DC96B3ADF800008F
:104570006088ADF8020032466946284600F099F896
:10458000002827D0A088ADF800006088ADF80200B0
:1045900032466946284600F08CF800281AD0208858
:1045A000ADF80000E088ADF80200324669462846C2
:1045B00000F07FF800280DD0A088ADF80000E0885A
:1045C000ADF8020032466946284600F072F800282D
:1045D00000D00120F8BD0020F8BDB0F90020B1F9ED
:1045E00004309A4213DCB0F90420B1F900309A4249
:1045F0000DDBB0F90220B1F906309A4207DCB0F9C0
:104600000600B1F90210884201DB0120704700204A
:104610007047F8B50D460446B0F90400B1F9001032
:104620001646884243DBB4F90600B5F90210884209
:104630003DDBB4F90000B5F90410884237DCB4F969
:104640000210B5F90620914231DC76B3ADF80000D6
:104650006088ADF8020032466946284600F029F825
:1046600018BBA088ADF800006088ADF802003246A3
:104670006946284600F01DF8B8B92088ADF800005A
:10468000E088ADF8020032466946284600F011F88D
:1046900058B9A088ADF80000E088ADF802003246B5
:1046A0006946284600F005F808B10020F8BD012051
:1046B000F8BD2DE9FC4114460E46B1F90020B0F9D1
:1046C000001005468A423ADBB5F90400824236DC26
:1046D000B6F90270B5F90220974230DBB5F9063021
:1046E0009F422CDC002C75DD401A9A1A401C521C8B
:1046F00000B212B200EBD07002EBD2724010521036
:10470000904200DB1046844200DD0446ADF8001004
:10471000288800222044ADF804006888ADF8020023
:10472000688831462044ADF806006846FFF7C1FFAF
:1047300040B1BDF804002044ADF804003FE0002083
:10474000BDE8FC81E8880022001BADF80200E88883
:10475000ADF8060031466846FFF7ABFF28B1BDF85B
:1047600004002044ADF8040011E0A8880022001BDA
:10477000ADF80000A888ADF8040031466846FFF7A0
:1047800098FF50B1BDF80000001BADF80000BDF867
:104790000200001BADF8020016E06888ADF80200C8
:1047A000688800222044ADF8060031466846FFF7CD
:1047B00080FF70B1BDF80000001BADF80000BDF82F
:1047C00006002044ADF80600314668461CF0B6FFEE
:1047D000B6E7FFE70120B3E710B5B1F90040B2F941
:1047E00000309C4200DA23460380B1F90240B2F95E
:1047F00002309C4200DA23464380B1F90440B2F90A
:1048000004309C4200DD23468380B1F90610B2F9E2
:104810000620914200DC1146C18010BD2DE9F04117
:104820008AB007461FF0A6FB0026A34C054600965B
:104830000FB1F86801E011F067FF606000691CF0DB
:1048400079FE6068406908B11CF074FE6068C06958
:104850001CF070FE6068006A1CF06CFE6068016904
:1048600091B11DF013F821F075FE21F09BFB6068FB
:10487000B0F85011E9B30068017CC9071FD0C068C7
:104880004068E0B1002715E0A0F850610AB0BDE82B
:10489000F081C11991F8301151B900F5AC7000F0F8
:1048A00040FD616801EBC7010A6B0260496B416022
:1048B0007F1CBFB26068B0F85011B942E9D8606897
:1048C0004FF48071303018F0DFF96068202100F576
:1048D000987018F0D9F96068A0F8506128461FF068
:1048E00043FB009060680068436A13B12268009936
:1048F000984718F00DF800F02BF900F0FDF86F4D17
:104900006F69D7BB17F0B5FD16F0AEFE0746002263
:104910007F211CF05BFC11F0A5F80146002238460F
:104920001CF03EFC11F057FB0146002238461CF0FB
:104930005BFD0022032138461CF042FD00220321CA
:1049400038461CF02EFD0022032138461CF02EFDB7
:104950000022032138461CF02EFD00220321384698
:104960001CF03DFD56A1384617F004FD00231A4601
:104970000621384618F074FD6F6128681FF0F4FABC
:104980004FF4967840450CD2206841F28831884235
:1049900034D96968009808446860A868401CA86019
:1049A0002CE01FF0E7FA28606068406828B10068D2
:1049B0004FF47A71B1FBF0F000E02120696809B989
:1049C00001216960A968F1B14FF47A7251436A68B4
:1049D000B1FBF2F46E60AE60844200D904462869EF
:1049E00020442861E868401CE8601FF059FBC0F1D2
:1049F0006403224633A1384617F0F3FC2E4D0835E8
:104A00006C6814B137E00446E4E717F032FD16F0A5
:104A10002BFE044600227F211CF0D8FB11F022F867
:104A20000146002220461CF0BBFB11F0D4FA0146DF
:104A3000002220461CF0D8FC0022032120461CF056
:104A4000BFFC0022032120461CF0ABFC0022032106
:104A500020461CF0ABFC0022032120461CF0ABFCDE
:104A600017A1204617F086FC00231A460421204691
:104A700018F0F6FC6C6028681FF076FA40457FF667
:104A800005AF1FF077FA286002A817F0D9FF049944
:104A90000298401A820A514200EB81206621B0FB45
:104AA000F1F39DF821109DF82000CDE9000109A146
:104AB000204617F096FCE9E648C001205802012084
:104AC0003F0000002575204650530A2575252520F6
:104AD0004350550025752E2575206B422075736552
:104AE0006420282564202525290A2564252520669B
:104AF0007261672E0000000070B50A4D002400BFEF
:104B0000C4EBC40655F8260008B117F075FF05EB95
:104B100086001C2118F0B8F8641CE4B2042CEFD312
:104B200070BD0000C8040120084949680AE04A68CD
:104B3000824202D00A68824203D10A7E42F0010218
:104B40000A7649690029F2D17047000028C0012087
:104B5000704700000421014800F08CBBE0030120F5
:104B60002021014800F086BBF80301202DE9FF4118
:104B70000446DDE90A671D004FF0000002D1B6F5DA
:104B8000807F2BD0039001900290ADF80C10009024
:104B9000ADF80410ADF80A20ADF80E203B463246C1
:104BA000294668461CF02AFD3B463246294601A8A4
:104BB0001CF024FD3B463246294602A81CF01EFD8F
:104BC0003B463246294603A81CF018FDBDF90000FB
:104BD000BDF90430984209DA054608E02080491EF4
:104BE0006080A180521EE280BDE8FF811D46BDF9B4
:104BF0000820BDF90C108A4201DA164600E00E4684
:104C0000B54203DA984206DB184604E08A4201DA2C
:104C1000104600E00846801E2080BDF90030BDF936
:104C20000420934201DD1D4600E01546BDF9080051
:104C3000BDF90C10884201DD064600E00E46B54283
:104C400005DD934201DD194604E0114602E0884289
:104C500000DD0146891CA180BDF90230BDF90620A6
:104C6000934201DA1D4600E01546BDF90A00BDF980
:104C70000E10884201DA064600E00E46B54205DA1B
:104C8000934201DA194604E0114602E0884200DA54
:104C90000146891E6180BDF90230BDF906209342AC
:104CA00001DD1D4600E01546BDF90A00BDF90E10F4
:104CB000884201DD064600E00E46B54205DD93421E
:104CC00001DD194604E0114602E0884200DD01469C
:104CD000891CE18088E700002DE9F04115460E4669
:104CE0000746114C1FF046F980462B46324639469E
:104CF000204615F0F9FE20B10020A062E06950B115
:104D000010E02C21204617F0BFFF4FF00040A062BA
:104D10000020BDE8F08140461FF026F9E06108B9A7
:104D20000120E0612046F4E71C04012010B51421A5
:104D3000074800F09FFA15F09DFE40B1054901605B
:104D400005494160054981600549C16010BDFEE724
:104D50000404012049A40108C5A7010895A9010878
:104D600015A4010870B50D4604461021284617F019
:104D70008BFF20680078012804D0022807D004287F
:104D800007D008E0A08A2880E08A688003E0E06815
:104D900000E00A20686020684268002A03D02946A3
:104DA000BDE87040104770BD2DE9FE430446808A7F
:104DB00010B9E08A002874D0D4F82C805FEA08008B
:104DC00010D120460BF0BFF85FEA000869D02046FA
:104DD0000DF09AFC00220921404614F07FFD607816
:104DE00080075ED44FF4807900274E464546002167
:104DF00028461AF0C5FB384407B2002128461AF0AD
:104E0000DDFBC11700EB1160001210FB06F006B2CB
:104E1000284619F0B1FB0500E9D10FB94E450CD079
:104E2000784201B24FF4803090FBF6F002B26B464C
:104E300004F1140000951CF0E1FBADF80450ADF84E
:104E4000085094F8400000F00F000328404616D0A8
:104E500019F0E4FC0646404619F09AFB03460C2084
:104E60000090B4F91610324640460AF0FDFAADF84B
:104E70000800404619F0DEFBC10713D018E019F016
:104E800061FC0646404619F0FDFB024603200090F7
:104E9000B4F91410334640460AF0E6FAADF80400BF
:104EA000E7E736E0BDF90410002901DDADF8045054
:104EB000810705D4BDF90410002901DAADF80450CA
:104EC000410705D4BDF90810002901DDADF80850EF
:104ED000000705D4BDF90800002801DAADF8085034
:104EE00002AA01A9204621F0D1FEBDF90820BDF992
:104EF0000410404600F08AFA6078800709D4208BBD
:104F0000BDF8041008442083608BBDF808100844E5
:104F10006083BDE8FE832DE9FC5F0446C06A5FEA5A
:104F2000000B71D094F8400000076DD016F06EF8B9
:104F3000019000684021457E58461AF06BFC4FF006
:104F4000000818B9A4F81E80A4F81C80584619F06F
:104F500057FC8246584619F05AFC064694F8400021
:104F60004FF0640900F00F000C2802D003284CD049
:104F70009AE0A4F81C8056B1B4F91E50002716F030
:104F800045F800684946407EC0F1640022E0E08BAD
:104F9000C5F1640110FB01F191FBF9F0E083584683
:104FA00019F0F6FA0546584619F038FC02460C206E
:104FB0000090B4F91E102B4658460AF055FAE083CB
:104FC000024600231EE07A1917B210FB05F292FB8D
:104FD000F1F215B2002DF6D1ADF80070A4F81E80E4
:104FE0006A460021204621F051FE41F6FF72BDF9CC
:104FF0000030514258460BF03DF9BDF80010012336
:10500000084402B200214CE09AE0A4F81E80BAF1F4
:10501000000F0AD0B4F91C50002715F0F7FF006804
:105020004946407EC0F1640022E0A08BC5F16401D6
:1050300010FB01F191FBF9F0A083584619F022FB17
:105040000546584619F07EFB034603200090B4F94C
:105050001C102A4658460AF007FAA083014600238E
:105060001EE07A1917B210FB05F292FBF1F215B2AD
:10507000002DF6D1ADF80070A4F81C80002269461E
:10508000204621F003FE41F6FF72BDF90030514287
:1050900058460BF067F8BDF800100123084401B230
:1050A000002258461BF0F2FCA08B002848D1E08B70
:1050B000002845D1C6B9584619F0B0FB05465846F8
:1050C00019F066FA002D06DC00280DDD002D02DA4D
:1050D00001232A4604E0002806DA0123404202B2F6
:1050E000002158461BF0D2FCBAF1000F19D15846E6
:1050F00019F0C8FA0546584619F024FB002D07DCC4
:1051000000280EDD002D03DA01230022294605E0E8
:10511000002806DA01230022404201B258461BF063
:10512000B5FC0A215846019A14F0D8FB6078800734
:1051300006D414F8400F20F00F00207044F8148CAF
:10514000BDE8FC9F7FB50E46040003D111F0DCFAE8
:1051500004002CD011F04CFB002828D094F8280033
:10516000400724D4002506B3ADF80050ADF8025036
:10517000204611F0E1FA401EADF80400204611F07F
:1051800021FB401EADF806006A46314602A8FFF733
:10519000A8F900280BD02068017C890708D5DDE933
:1051A0000001C4E90C01012029E0A4F850517FBDA1
:1051B00082690AB102A9904700260AE004EBC60101
:1051C000002202A83031FFF7B4F90028EFD1761C95
:1051D000B6B2B4F85001B042F0D880B2202804D260
:1051E00004EBC00002A9303004E0A4F8505104F1EF
:1051F000300069460EF08FFFB4F85001401CA4F84F
:10520000500160680028D2D01EF0F8FF7FBD70B555
:10521000054600F012F804460CE02146284600F04E
:105220001EF806462146284600F0A2F8204617F050
:10523000E3FB3446002CF0D170BD002800D040685C
:10524000704700B503460022FFF7F7FF03E018465A
:10525000521C00F004F80100F9D1104600BD0068AE
:10526000091D40587047006840587047002800D01A
:105270008068704700224260C91C21F003018260EF
:105280000160704770B504460068083017F028FBCD
:10529000050013D001460022204620F013F92946CC
:1052A0002046626820F008F9616819B12A46204654
:1052B00020F008F96560A06800B9A560284670BDB7
:1052C0002DE9F0410C4606000AD04CB1FFF7B5FFBE
:1052D000A04208D13046FFF7D5FF051E01D01EE0E1
:1052E0000020BDE8F0813068083017F0F9FA051E9B
:1052F000F7D030682A4607593046394620F0DCF8A6
:105300003A462946304620F0DDF82A462146304606
:1053100020F0D8F822462946304620F0CDF828461D
:10532000DFE770B504460068083017F0D9FA0500C9
:1053300013D001460022204620F0BEF82946204620
:10534000A26820F0BFF8A16819B12A46204620F0D3
:10535000B3F8A560606800B96560284670BD28B1E3
:10536000416809B9806808B1002070470120704782
:1053700070B504000DD0FFF760FF00228842204680
:1053800008D1FFF76CFF6060011E01D000221EE013
:10539000A26070BDFFF76AFF8842206808440AD106
:1053A0000168A16029B12046BDE87040002220F0CC
:1053B00083B8626070BD05682046FFF750FF06465F
:1053C00002462946204620F077F82A4631462046F4
:1053D000BDE8704020F076B810B5044600688268D9
:1053E0000AB12146904720680068002801D020605B
:1053F000F5E710BD8068002801D0B0F916007047AD
:105400008068002801D0807E8009704770B51646FC
:1054100005460C4651EA06001AD0284618F09AF9BB
:10542000A86801233246018A21440182A868418A82
:1054300031444182214628461AF080FD00220B218A
:10544000284614F04BFA012803D128461AF0D0FC64
:10545000012070BD77B581B00E46050017D06222DD
:1054600019F0BCFF040012D0206880B128463146F4
:10547000632219F0B3FF10F0FF0208D02368204622
:10548000039998470090BDF80000ADF80C00039810
:1054900004B070BD2DE9F047074692B0408C1A9ECB
:1054A00040F00800788490463A8499468A463289CA
:1054B000384619F093FF0546A7F8209032895146E7
:1054C000384619F08BFF0446788CA54220F008007E
:1054D000788403D12904B1EB044F68D0A7F8208069
:1054E00032895146384619F079FF05468046A7F8BB
:1054F0002090514638460CF03DF9318900682A4623
:105500001DF084FC30890B2823D147F6FF794D45E7
:1055100001D04C451DD138461AF033F900EBD0705C
:105520004510384618F0E7FF00EBD0704010C84532
:1055300006D1691C431C994200DA00E019468846EE
:105540004C4506D1691C421C914201DA6C1C00E0FA
:1055500014461948FFF796FE05002BD02F60C5E9C9
:1055600003843089A8806846C5F808A00EF046F884
:105570001248FF21CDE900501148029011480390D4
:1055800000200890CDE9090130880B9070889DF8C3
:10559000421040420C90F0680790002060F3000138
:1055A0008DF842103069069068460EF09BF812B0F4
:1055B000BDE8F087FEE7000010040120A9CA020838
:1055C00095CC0208F1CB020814210148FFF752BE26
:1055D000100401202DE9F84F002590468946064623
:1055E0002C460427E5E000BFF16807EBC40008582B
:1055F00082017AD480B230EA090211D05FF0000251
:1056000030EA08000ED0002082426ED051F834A05B
:105610006A46102150461DF05BF9002871D103E065
:105620000122EDE70120EFE76A46112150461DF007
:105630004FF9002865D16A46122150461DF048F9FD
:1056400000285ED16A46132150461DF041F900281A
:1056500057D16A46152150461DF03AF9002850D11D
:105660006A46142150461DF033F9E8BB6A460A2108
:1056700050461DF02DF9B8BB6A466B2150461DF00F
:1056800027F988BB6A466C2150461DF021F958BBAA
:105690006A46012150461DF01BF928BB6A460421C9
:1056A00050461DF015F9F8B96A46022150461DF022
:1056B0000FF9C8B96A46032150461DF009F998B997
:1056C0006A46052150461DF003F968B96A4606216D
:1056D00050461DF0FDF838B96A46322150461DF09B
:1056E000F7F808B96A4601E00BE061E06E21504628
:1056F0001DF0EEF828B96A466D2150461DF0E8F815
:1057000010B10320BDE8F88F6A46692150461DF0AC
:10571000DFF8E8BB6A466A2150461DF0D9F8B8BBED
:105720006A466E2150461DF0D3F888BB6A466D214B
:1057300050461DF0CDF858BB6A46372150461DF043
:10574000C7F828BB6A46382150461DF0C1F8F8B9A1
:105750006A46352150461DF0BBF8C8B96A4640215B
:1057600050461DF0B5F898B96A46452150461DF0DF
:10577000AFF868B96A46412150461DF0A9F838B91A
:105780006A46422150461DF0A3F808B96A4600E077
:105790000AE0432150461DF09BF828B96A4649218A
:1057A00050461DF095F808B1022501E005B9012524
:1057B000641C708CC0F30510A0423FF615AF28465C
:1057C000A0E70000014840687047000048C0012081
:1057D0000549002048600861C86088600860486129
:1057E00002490860486070475802012050C00120FB
:1057F000C0F30410072800D907207047A0F57F41A7
:10580000FF3905D0002804D0712803D208490AE0E6
:105810001F2070470749713880B2096829B1064ACC
:105820005268904201D2085C704700207047000027
:105830007C4703089CC001205001002010B51821AE
:105840000348FFF717FD03490120087010BD000051
:10585000BC030120B0C001202DE9F04190460C4668
:10586000050015D0FAF721FD0A4F06462146BA6811
:10587000284690470446BA68281941469047014691
:10588000701A03E06218AA5C2A55641CA042F9D27F
:10589000BDE8F081C4C001202DE9F041094D9046DA
:1058A0000E466A681C46074619469047306020B18C
:1058B00020686A68384400219047C8F80000BDE8B5
:1058C000F0810000C4C001202DE9F04F87B08A4666
:1058D000DDE910581F4693460446002105B1298092
:1058E0005CB12078002809D0BAF1000F05D000265D
:1058F00018F0060F15D0002004E0002007B0BDE826
:10590000F08F401C215C0A2904D00D2902D0002907
:10591000F7D100E0401C002DF0D04FF0FF3129807E
:10592000ECE75FEA887001D541F6FF7789460846C3
:105930008DF81410049127E00498CDF8189068B3FE
:105940004FF0000C05AA06ABCDF80CC0CDF80080D6
:10595000CDE9013220443B465A4651461EF0B2FD85
:1059600006997A1A314417B20EB288B104990144EB
:10597000049120780A280BD00D2809D0605C0A28F1
:105980000FD00D280DD00846205C08B1002FD3DCC5
:10599000049848B105B12E800498AFE74FF0010C90
:1059A000D0E7481C0490F3E7064A04A92046526851
:1059B0009047002DF0D001460022504614F0A2F886
:1059C00006B2E8E7C4C001202DE9F0411746884639
:1059D00006001ED0002F1CD0FAF767FC044638469C
:1059E000FAF763FC050014D00B4A2C444146926838
:1059F00030469047411903E0621BB25C3255641E89
:105A0000A142F9D930442A463946BDE8F04117F0A1
:105A1000FDB8BDE8F0810000C4C001200023027879
:105A2000232902D0012A0DD00FE02AB10021012A3A
:105A300004D0022A04D008E0012101E0017004E052
:105A4000017001E0202902D001231846704702218D
:105A5000F6E72DE9F0410E46804602460021334626
:105A600008461EF06DFF04460027401C16F038FF64
:105A7000050008D02F5533464246611C1EF060FFDA
:105A80002846BDE8F081FEE72DE9F0471E461446A2
:105A90000D468246DDF8209015E000BF4FEA54081D
:105AA00008FB0657394650464A469047002808DD0D
:105AB00044F30000C0EB540407EB0605A4F1010415
:105AC00001E005DA4446002CE8D12046BDE8F08725
:105AD0003846FBE72DE9FC5F9B460CAB8A468146C6
