:020000040800F2
:100000004005012031020008491C0008411A00087F
:10001000C91B0008750800087125000800000000D1
:100020000000000000000000000000004D1C00085F
:10003000C1080008000000004B1C0008D91C000883
:100040004B0200084B0200084B0200084B0200085C
:100050004B0200084B020008C3080008C90800084A
:100060004B0200084B020008CF0800084B020008B2
:100070004B0200084B0200084B0200084B0200082C
:100080004B0200084B0200084B0200084B0200081C
:10009000B50800084B0200084B0200084B0200089C
:1000A0004B0200084B0200084B0200084B020008FC
:1000B0004B0200084B0200084B0200084B020008EC
:1000C0004B0200084B0200084B0200084B020008DC
:1000D0004B0200088D220008492300080124000873
:1000E0004B0200084B0200084B0200084B020008BC
:1000F0004B0200084B0200084B0200084B020008AC
:100100004B0200084B0200084B0200084B0200089B
:100110001D200008D52000084B0200084B020008F3
:100120004B0200084B0200084B0200084B0200087B
:100130004B0200084B0200084B0200084B0200086B
:100140004B0200084B0200084B0200084B0200085B
:100150004B0200084B0200084B020008B9240008BB
:100160004B0200084B0200084B0200084B0200083B
:100170004B0200084B0200084B0200080000000080
:100180004B0200084B02000800F002F800F041F8B2
:100190000AA090E8000C82448344AAF10107DA45E2
:1001A00001D100F036F8AFF2090EBAE80F0013F0F3
:1001B000010F18BFFB1A43F001031847C4280000C1
:1001C000E4280000103A24BF78C878C1FAD8520752
:1001D00024BF30C830C144BF04680C6070470000C1
:1001E0000023002400250026103A28BF78C1FBD840
:1001F000520728BF30C148BF0B607047642900F028
:10020000BB80002070471FB502F01AFC1FBD10B55F
:1002100010BD00F0FDFA1146FFF7F5FF02F0F0F90E
:1002200000F01BFB03B4FFF7F2FF03BC02F0B8F9C8
:100230000948804709480047FEE7FEE7FEE7FEE77A
:10024000FEE7FEE7FEE7FEE7FEE7FEE704480549B6
:10025000054A064B70470000E91D000889010008A7
:1002600040FF002040050120400101204001012005
:10027000704753EA020C00F069802DE9F04B4FF013
:100280000006002B1FBFB3FA83F503FA05F424FA26
:1002900005F65E4012BF1643B2FA82F502FA05F483
:1002A000C5F120051EBF22FA05FC44EA0C042035E6
:1002B00056EA044C4FEA144418BF641C4FF000087F
:1002C0004FF00009904271EB030C39D3002919BF9C
:1002D000B1FA81F701FA07F6B0FA80F700FA07F6EB
:1002E000C7F120071EBF20FA07FC46EA0C0620379C
:1002F000B6FBF4FCA7EB0507103F07F01F0BCBF193
:1003000020060CFA0BFB2CFA06F644BFB346002677
:10031000202FA4BF5E464FF0000B5BEA060C08BF1F
:100320004FF0010B19EB0B09ABFB027C48EB060805
:10033000C01B06FB02CC0BFB03CC71EB0C01C1E72D
:100340000B46024641464846BDE8F08B13B54FF0D8
:1003500000004FF00001AFF30080BDE81C40704783
:100360000FB4044910B503AA029800F009FA10BCB2
:100370005DF814FB1C0000202DE9F0410646002426
:1003800010687529314616A510D0AFF300800028FB
:1003900002DA404213A507E031688A0701D512A5A9
:1003A00002E0490704D511A5012401E0AFF3008064
:1003B00000210A2206F1240709E0B0FBF2FCB0FBA1
:1003C000F2F302FB1C00303078541846491C002818
:1003D000F3D123462A463046BDE8F04100F05EB92D
:1003E000000000002D0000002B0000002000000095
:1003F0002DE9F05F894604464FF0000ADFF874B13A
:10040000FB44C0F820A02046E1688847002874D04B
:10041000252806D0D4E901219047206A401C20629B
:10042000F1E700265F462046E16888472028054618
:1004300007DB312D05D2781910F8200C08B10643DE
:10044000F1E7B00701D526F00406C4F81CA0002788
:10045000C4F818A02A2D09D0284602F09AF838B31B
:1004600004EB8708303DC8F8185019E059F8041B10
:10047000204604EB87029161E1688847012F054619
:1004800018D1E069002820DA26F020061DE0D8F80F
:10049000180000EB800005EB40003038C8F8180069
:1004A0002046E1688847054602F073F80028EED13F
:1004B000012F0AD02E2D08D12046E16888477F1CE5
:1004C0000546022F46F02006C4DBA069002803DAA7
:1004D000404246F00106A061F00701D026F0100668
:1004E0006C2D0BD0682D09D04C2D39D06A2D35D00C
:1004F000742D35D07A2D33D016E038E0E1682F46E0
:1005000020468847B842054609D16C2F26D04FF4C3
:100510008060E168064320468847054604E06C2F6A
:100520001AD04FF4807006430DB3A5F1410019288D
:1005300002D8203546F400664A4629462046266001
:100540004E46FFF75BFE80B101280BD0F61D26F06A
:10055000070000F1080956E74020E4E78020D8E7CB
:100560000020D6E706F104094DE7284652E7206A45
:10057000BDE8F09F68260000032A40F2308010F0AA
:10058000030C00F0158011F8013BBCF1020F62442E
:1005900098BF11F801CB00F8013B38BF11F8013BBF
:1005A000A2F1040298BF00F801CB38BF00F8013B6C
:1005B00011F0030300F0F680083AC0F0088051F80B
:1005C000043B083A51F804CBA0E80810F5E7121DE7
:1005D0005CBF51F8043B40F8043BAFF30080D20706
:1005E00024BF11F8013B11F801CB48BF11F8012BD2
:1005F00024BF00F8013B00F801CB48BF00F8012BF5
:1006000070474FF000020429C0F0128010F0030C74
:1006100000F01B80CCF1040CBCF1020F18BF00F8F5
:10062000012BA8BF20F8022BA1EB0C0100F00DB8A4
:100630005FEAC17C24BF00F8012B00F8012B48BF02
:1006400000F8012B70474FF0000200B513469446A6
:100650009646203922BFA0E80C50A0E80C50B1F11A
:100660002001BFF4F7AF090728BFA0E80C5048BF2E
:100670000CC05DF804EB890028BF40F8042B08BFCC
:10068000704748BF20F8022B11F0804F18BF00F8C8
:10069000012B704770477047704770472DE9F0474E
:1006A0000D4699469246044600F1240801688806E2
:1006B00004D5E06921F01001216000E00120A8428A
:1006C00001DD471B00E00027A1697A1902EB090050
:1006D000081AA0612078C00602D42046AFF300803B
:1006E000002608E0D4E901211AF806009047206AA4
:1006F000401C761C20624E45F4DB2078C0060AD5EB
:100700002046AFF3008006E0D4E901213020904775
:10071000206A401C2062381EA7F10107F4DC07E0C4
:10072000D4E9012118F805009047206A401C206296
:10073000281EA5F10105F3DC2046AFF300802078E8
:10074000000602D50220BDE8F0870120FBE700008B
:1007500001694A1C02610878704700B58FB0CDE985
:1007600001310021059105497944CDE90310114675
:100770006846FFF73DFE0FB000BD0000E5FFFFFF3C
:10078000074B70B50D467B44FFF7E7FF044628464C
:1007900000F03AF810B14FF0FF3070BD204670BD48
:1007A000371E000010B5203AC0F00B80B1E8185099
:1007B000203AA0E81850B1E81850A0E81850BFF44B
:1007C000F5AF5FEA027C24BFB1E81850A0E81850EA
:1007D00044BF18C918C0BDE810405FEA827C24BF3E
:1007E00051F8043B40F8043B08BF7047D20728BFCC
:1007F00031F8023B48BF11F8012B28BF20F8023B1B
:1008000048BF00F8012B7047007B00F08000704764
:10081000754600F02BF8AE4605006946534620F0B9
:100820000700854618B020B5FFF710FDBDE8204051
:100830004FF000064FF000074FF000084FF0000B9C
:1008400021F00701AC46ACE8C009ACE8C009ACE84F
:10085000C009ACE8C0098D46704710B50446AFF337
:1008600000802046BDE81040FFF7DCBC0048704720
:10087000DCFE0020FEE7000000B58BB00020012167
:10088000CDE9060108910090019002900390059037
:1008900004900E2009906946054800F08DF8044840
:1008A00000F088FB0221024800F016F80BB000BDF2
:1008B00034000020014800F080B90000340000201E
:1008C0007047012000F0EEBB022000F0EBBB1020CF
:1008D00000F0E8BB72B6FEE790F82020012A07D0AE
:1008E000022A05D0416A41F480214162012070470B
:1008F000006842690A43426100207047F0B590F8F1
:1009000020500468A468012D05D0022D03D0416A4F
:1009100041F480214DE014F0406F01D1E50045D550
:10092000C4F301640125A5401D608D684FF4C073B8
:100930009DB1CE6835434E6845EAC605066803EBAF
:100940000417F5514FF4C275076805EB04150E69DD
:100950007E51097D012905D009E00E88CD6845EA60
:100960004655EBE701684E5946F480764E511179B1
:10097000D2F805504FF4C67641EA0521056806EB2A
:100980000416A9511178D2F801204FF4C47541EA38
:100990000221026805EB04155151006803EB0411B4
:1009A000425842F0010242500020F0BD416A41F439
:1009B000001141620120F0BD10B590F82020012AFD
:1009C00007D0022A05D0416A41F48021416201200A
:1009D00010BD3B48D0F8002242F00102C0F80022CE
:1009E000D0F8002222F47C52C0F80022D0F8002275
:1009F0004B6A42EA0322C0F800220A7D02F01F037C
:100A000001229A40D0F81C329343C0F81C32CB69C3
:100A1000B3B9D0F80C329343C0F80C328C894B68D0
:100A200064F31F434C6900EBC404C4F840320C89E2
:100A30000B6864F31F434C6900EBC404C4F84432F0
:100A4000CB69012B16D1D0F80C321343C0F80C320D
:100A50000C884B6864F31F434C6900EBC404C4F872
:100A600040320C89CB6864F31F434C6900EBC4042B
:100A7000C4F844328B69002BD0F804320ED01343F3
:100A8000C0F804320B69002BD0F8143208D013439D
:100A9000C0F81432096A012904D008E09343EFE753
:100AA0009343F5E7D0F81C121143C0F81C12D0F89C
:100AB000001221F00101C0F80012002010BD00005A
:100AC00000640040704770B590F82040012C05D0BC
:100AD000022C03D0416A41F4802128E0046809B364
:100AE0002469A40720D04FF4D874056804EB0114DE
:100AF0002D5915F00405956005682D591AD0ED089B
:100B0000556005682C5904F00204D4604FF4DA747F
:100B1000056804EB01142E5906F00F06082E0CD3BD
:100B200008250DE0E468DCE7416A41F40011416208
:100B3000012070BD6D0D1560E3E72D5905F00F051F
:100B4000156105682D59C5F30725956105682C5970
:100B5000240C54614FF4DC72046802EB0112A458B7
:100B60001C700468A458240A5C700468A458240CFF
:100B70009C700468A258120EDA704FF4DE7204689A
:100B800002EB0112A4581C710468A458240A5C7179
:100B90000468A458240C9C710468A258120EDA71DF
:100BA000006829B1016941F020010161002070BD98
:100BB000C16841F02001C160F8E72DE9F05F05460A
:100BC000006800244669D0F804908768D0F80CB01B
:100BD000D0F810A0D0F81880F10748D0F90714D049
:100BE00001218160B80703D5284600F010FA0CE017
:100BF000780702D54FF4006407E0380702D54FF4B8
:100C0000805402E0284600F001FAF80516D529685C
:100C10004FF480708860B80503D5284600F0F9F9D4
:100C20000CE0780502D544F4005407E0380502D5FD
:100C300044F4804402E0284600F0EAF9F80316D5AF
:100C400029684FF480308860B80303D5284600F047
:100C5000E2F90CE0780302D544F4004407E03803DD
:100C600002D544F4803402E0284600F0D3F930077E
:100C700007D55FEACB6004D52968102044F40074DE
:100C8000C86070074FF0080707D55FEA0B7004D5FE
:100C90002868C760284600F059F9B00706D52868CB
:100CA000C068800702D0284600F052F9700607D5C8
:100CB0005FEACA6004D52968102044F480640861A2
:100CC000B00607D55FEA0A7004D528680761284690
:100CD00000F06CF9F00606D528680069800702D09C
:100CE000284600F064F9B00308D55FEAC96005D56D
:100CF000296810204860284600F05AF9F00307D50B
:100D00005FEA097004D528684760284600F084F936
:100D1000300446D55FEA497040D5F00504D55FEA56
:100D2000C87001D044F00104B00504D55FEA8870B2
:100D300001D544F00204700504D55FEA487001D57E
:100D400044F00404300529D518F0700F26D008F0BF
:100D50007000402815D006DC102809D020280AD0C1
:100D6000302816D10AE050280ED0602811D10EE0AC
:100D700044F008040DE044F010040AE044F02004BC
:100D800007E044F0400404E044F0800401E044F44F
:100D900080742868816921F07001816129680420CC
:100DA0004860002C05D0686A204368622846FFF737
:100DB00089FEBDE8F09F70B5040003D094F82000D0
:100DC00010B104E0012070BD204600F081F82068D9
:100DD000016841F00101016000F076FA0546052640
:100DE00004E000F071FA401B0A2811D8206840681E
:100DF000C007F6D02068016821F00201016000F010
:100E000063FA05460BE000F05FFA401B0A2806D99A
:100E1000606A40F40030606284F82060D2E72068A5
:100E200040688007EFD4207E0128206801683DD00B
:100E300021F080010160607E01282068016838D0BF
:100E400021F040010160A07E01282068016833D0B4
:100E500021F020010160E07E0128206801682ED089
:100E600041F010010160207F01282068016829D02D
:100E700021F008010160607F01282068016824D00A
:100E800021F004010160D4E902010843D4E904120D
:100E9000114308436168491E08432168C861002066
:100EA0006062012084F82000002070BD41F08001C4
:100EB000C0E741F04001C5E741F02001CAE721F059
:100EC0001001CFE741F00801D4E741F00401D9E770
:100ED00010B586B0044614216846FFF7B4FB1849E4
:100EE0002068884229D117480021026842F0007228
:100EF0000260006800F00070059012481038026827
:100F000042F002020260006800F0020005904FF417
:100F1000407000900220CDE90101032003900920D8
:100F200004906946084800F0C9F8002211461420D0
:100F300000F038FA142000F027FA06B010BD0000C7
:100F40000064004040380240000402407047000046
:100F500010B5144B144A0021FFF7B5FD1248114992
:100F6000114B42680C39C2F3072048600C3134330E
:100F7000012809D0022810D1100E0FD003F1400033
:100F8000BDE8104000F022BE100E03D0064805490F
:100F90005430F5E7087883F8210010BD087883F80D
:100FA000410010BD2C00002028FE00207047704733
:100FB0007047000070B5044690F82000012804D066
:100FC000606A40F40020606218E0022084F820008B
:100FD0002068016821F00101016000F075F9054603
:100FE0000EE000BF00F070F9401B0A2808D9606AC3
:100FF00040F400306062052084F82000012070BDBC
:1010000020684068C007EDD1606270BD70477047CE
:1010100070477047704770477047000070B50446CE
:1010200000F052F90546601C02D0044800780444E0
:1010300000F04AF9401BA042FAD370BD0000002026
:1010400010B50E4A01280CD0022810D0102814D157
:101050002021104600F02AF909A0BDE81040FFF752
:101060007FB92021104600F021F908A0F5E72021E2
:10107000104600F01BF908A0EFE710BD0008024081
:101080004B45595F3320B0B4CFC20D004B45595F7B
:101090003120B0B4CFC20D004B45595F3220B0B4FF
:1010A000CFC20D00044910B50A68024202D00860A0
:1010B000FFF7C6FF10BD0000143C01402DE9F84FBA
:1010C000DFF8BCA10022012503264FF00F090AF129
:1010D000040BAAF1040E00BF0B6805FA02F42340CA
:1010E000A34270D10F7907F00307012F01D0022F1F
:1010F00016D187684FEA420806FA08FC27EA0C076F
:10110000D1F80CC00CFA08FC4CEA070CC0F808C077
:101110004768A7430C79C4F3001494403C434460EF
:101120000C79E443A4070AD0C4684FEA420C06FADB
:101130000CF7BC438F6807FA0CF72743C7600C799C
:1011400004F00304022C12D1D40800EB840CDCF868
:1011500020405707FF0E09FA07F824EA0804D1F8DF
:10116000108008FA07F848EA0408CCF820800468E0
:101170004FEA420C06FA0CF7BC430F7907F003075D
:1011800007FA0CF7274307604C6814F4403F70D00F
:101190003C4C276847F480472760246822F0030707
:1011A00004F480440094384C07EB040CDCF8084845
:1011B00097074FEA177809FA08F7BC43334FB8424C
:1011C00002D1002724E054E0314FB84201D1012779
:1011D0001EE0304FB84201D1022719E02E4FB8422D
:1011E00001D1032714E02D4FB84201D104270FE0AD
:1011F0002B4FB84201D105270AE02A4FB84201D14E
:10120000062705E0284FB84201D1072700E008274C
:1012100007FA08F72743CCF80878DAF80040574671
:10122000D1F804C09C435FEACC2C00D51C433C6041
:10123000DBF800405F46D1F804C09C435FEA8C2C89
:1012400000D51C433C60DEF800407746D1F804C06E
:101250009C435FEA8C3C00D51C433C60084F083F30
:101260003C68D1F804C09C435FEACC3C00D51C43E9
:101270003C60521C102AFFF42FAFBDE8F88F00002D
:10128000083C014044380240003001400000024068
:101290000004024000080240000C0240001002401E
:1012A0000014024000180240001C0240426921EA7A
:1012B00002030A4043EA0241816170470AB1816139
:1012C00070470904FBE70000014880687047000090
:1012D0000000002002488168027811448160704754
:1012E000000000200B4810B5016841F40071016056
:1012F000016841F480610160016841F4807101601E
:10130000032000F06FF80F2000F006F800F024F83A
:10131000002010BD003C024070B50D4D04464FF456
:101320007A712878B1FBF0F00A490968B1FBF0F056
:1013300000F00AFB48B9102C07D200222146501EAB
:1013400000F030F800206C6070BD012070BD00001E
:10135000000000200C0000200A4808B5016841F494
:1013600080410160006800F4804000900548001F43
:10137000016841F080510160006800F080500090E9
:1013800008BD000044380240002809DB00F01F02BD
:10139000012191404009800000F1E020C0F80011D7
:1013A00070470000F0B40E4B1B680C46C3F30223D9
:1013B000C3F10705042D00D90425191D072901D201
:1013C000002300E0DB1E012606FA05F1491E21403C
:1013D00099409E40761E16403143F0BC01F0C9B8DA
:1013E0000CED00E0064900F0070208684FF6FF0325
:1013F000184040EA0220034A10430860704700008A
:101400000CED00E00000FA052DE9F0470E4605005E
:1014100065D0DFF81481D8F80000F7B200F00700BB
:10142000B04207D288F80070D8F8000000F007003A
:10143000B04254D128683D4C810712D5400703D5EE
:10144000206840F4E05020602878000703D5206829
:1014500040F4604020602068A96820F0F000084354
:1014600020602878C0072DD03049686808390128E5
:1014700012D0022813D0032811D009688907002947
:101480002DDA216821F0030101432160FFF71CFFE1
:10149000814641F2883A0EE009688903EFE709685E
:1014A0008901ECE7FFF710FFA0EB0901514502D9D4
:1014B0000320BDE8F0872068696800F00C00B0EBFD
:1014C000810FEFD1D8F80010404601F00701B1427A
:1014D00007D90770006800F00700B04201D0012072
:1014E000E7E72878400705D52068E96820F4E05050
:1014F000084320602878000706D52068296920F471
:10150000604040EAC100206000F038F82168084AD5
:10151000C1F30311515CC8400649086006480068E1
:10152000FFF7FAFE0020C4E7003C02400838024002
:10153000542A00080C00002004000020044805493B
:1015400000680968044AC1F38221515CC8407047B1
:101550000C00002008380240642A000804480549AD
:1015600000680968044AC1F34231515CC8407047C1
:101570000C00002008380240642A0008154810B505
:10158000006810F00C02144813D04110042A0FD048
:10159000082A0ED10F4C241F2268236802F03F0254
:1015A0005B0207D52068C0F38810A0FB010106E0AC
:1015B000084610BD2168C1F38811A1FB000100237A
:1015C000FEF757FE2168C1F30141491C4900B0FBF9
:1015D000F1F010BD083802400024F4002DE9F84F66
:1015E00004006ED02078DFF84C93C007A9F1040501
:1015F0004AD009F104000168C1F38101012908D032
:101600000068C0F3810002280AD1D9F80000400226
:1016100006D52868800337D560680028E1D033E01C
:101620006068B0F5803F10D0B0F5A02F286810D0CA
:1016300020F480302860286820F4802028606068CA
:10164000A8B1FFF741FE06460DE0286840F480305F
:10165000F4E740F480202860F7E700BFFFF734FE8E
:10166000801B642873D828688003F7D50CE0FFF747
:101670002BFE064605E000BFFFF726FE801B642810
:10168000F0D828688003F7D42078DFF8AC82800790
:101690004FF0000A3ED5A748001D016811F00C0F5D
:1016A00008D00068C0F3810002280BD1D9F80000EF
:1016B000400207D42868800716D5E068012800D1C9
:1016C00012E033E1E068B8B10120C8F80000FFF78C
:1016D000FBFD064605E000BFFFF7F6FD801B022874
:1016E000C0D828688007F7D52868216920F0F8005D
:1016F00040EAC10028600DE0C8F800A0FFF7E4FD53
:10170000064604E0FFF7E0FD801B02281FD828688A
:101710008007F7D42078000722D5864F8748616973
:10172000703771B101210160FFF7CEFD064604E07C
:10173000FFF7CAFD801B022809D838688007F7D553
:101740000EE0C0F800A0FFF7BFFD064605E082E00E
:10175000FFF7BAFD801B02287DD838688007F7D4D0
:101760002078400768D5DFF8CCB100270BF13C0B9F
:10177000DBF80000C0000BD4DBF8001041F0805112
:10178000CBF80010DBF80000012700F0805000903B
:101790006B4E3068C00510D4306840F48070306003
:1017A000FFF792FD009005E0FFF78EFD0099401ACB
:1017B000022850D83068C005F6D55E4EA0686C3659
:1017C00001280FD00528306810D020F001003060CB
:1017D000306820F004003060A068B8B1FFF774FDF5
:1017E00000900FE0306840F00100F4E740F00400A2
:1017F0003060F7E7FFF768FD0099411A41F2883041
:10180000814266D830688007F4D50EE0FFF75CFDB2
:10181000009007E0FFF758FD0099411A41F2883027
:10182000814256D830688007F4D42FB1DBF800101D
:1018300021F08051CBF80010A069C8B33D49091DC3
:101840000968C1F3810102294AD00228504607D015
:10185000C8F8600000E03CE0FFF736FD04463BE0DE
:101860004746C8F86000FFF72FFD064605E000BFB9
:10187000FFF72AFD801B02282BD828688001F7D4A7
:10188000D4E907010843A16A2E4A490802EB014145
:10189000626A41EA8211084394F82C1040EA01611F
:1018A000C9F8001001203866FFF70EFD044606E077
:1018B0003EE000BFFFF708FD001B022809D828689A
:1018C0008001F7D534E000BFFFF7FEFC001B0228C3
:1018D00002D90320BDE8F88F28688001F4D427E0FE
:1018E0000128F7D0D9F80000E26900F480019142A4
:1018F0001CD1226A00F03F01914217D147F6C07116
:10190000626A0140B1EB821F10D1A26A4FF0FF332F
:1019100000F4403103EB5202B1EB024F06D194F8D0
:101920002C1000F07060B0EB016F01D00120D1E706
:101930000020CFE70438024000004742800E4742B3
:10194000007000400000FFFF10B5401EB0F1807F26
:1019500001D3012010BD4FF0E02460610F2160171A
:1019600000F007FE0020A06107202061002010BDCC
:1019700070B5040004D094F84100002510B106E0D1
:10198000012070BD84F84050204600F023F8242048
:1019900084F841002068C16821F40051C1602046EC
:1019A00000F0EEFB2068016921F49041016120689C
:1019B000416921F02A0141612068C16841F4005168
:1019C000C1606564202084F8410084F842006563AA
:1019D000002070BD10B586B0044614216846FEF79D
:1019E00032FE14492068884221D113480021026840
:1019F00042F010020260006800F0100005900E48EE
:101A00001438026842F001020260006800F0010030
:101A100005904FF4C06000900220CDE90101032041
:101A200003900720049069460448FFF747FB06B07F
:101A300010BD000000100140443802400000024088
:101A4000FEE70000104810B50E4901600621416014
:101A500000214FF440328160C0E903124FF480123C
:101A600042610176012242768176C1760177417723
:101A7000FFF7A1F9002803D0BDE81040FEF72ABF08
:101A800010BD000000640040340000202DE9F0414A
:101A900086B014216846FEF7D6FD39480024016857
:101AA00041F080010160016801F080010591016849
:101AB00041F001010160016801F001010591016837
:101AC00041F004010160016801F004010591016821
:101AD00041F00201016000682A4E00F0020005900A
:101AE000002220213046FFF7E9FBDFF89C8000222E
:101AF00004214046FFF7E2FB01254FF48810CDE9B1
:101B000000500220214F029069463846FFF7D6FA6E
:101B1000122000904FF40410CDE9010569463846C3
:101B2000FFF7CCFA20200090CDE9015469463046F9
:101B30000394FFF7C3FA04200090CDE901546946ED
:101B400040460394FFF7BAFA002211460620FFF739
:101B500029FC0620FFF718FC002211460720FFF79A
:101B600021FC0720FFF710FC002211460A20FFF796
:101B700019FC0A20FFF708FC06B0BDE8F081000060
:101B800030380240000802400004024000000240D9
:101B90000C4810B50A4901604FF4E1314160002161
:101BA00081600C22C160C0E904128161C161FFF74C
:101BB000DFFE002803D0BDE81040FEF78BBE10BD4D
:101BC000001001405C000020FEE7000070B50446F4
:101BD00008880D46164640BA1021DFED170A9FED22
:101BE000170A00F0D7FD84ED010A6888102140BA79
:101BF000F3EE0E0ABBEE0E0A00F0CCFD84ED020AF5
:101C0000A888102140BAF2EE080ABAEE080A00F0DD
:101C1000C1FD84ED030AE88840BA00F000FE9FEDA4
:101C2000081B53EC112B00F00DFE00F0C7FD2061E6
:101C3000C6F30440A07670BD00003444000034C4F4
:101C40009A9999999999B93FFEE7704770470000B2
:101C50001CB500781C4B18431C4B58608DF80010C5
:101C6000080A8DF8010000208DF802008DF80300AD
:101C7000662A02D0732A13D01EE010EE100A14490F
:101C8000020E030C0A704B70040A8C70C8708DF839
:101C900004008DF805408DF806308DF807200BE024
:101CA000BCEEC00A10EE101A8DF804108DF8050075
:101CB0008DF806008DF80700054B6A46083B03497E
:101CC0000448FEF71BFE1CBD00FD001244FE002070
:101CD0002800002034000020FFF7FCBA30B593B094
:101CE00030216846FEF7AFFC14210CA8FEF7ABFCD0
:101CF0001D480025016841F080510160006800F036
:101D0000805011901948016841F4804101600068D9
:101D1000022400F480401190012000900004019002
:101D20008001CDE9064008AA0420A82182E813001A
:101D30000B906846FFF752FC08B172B6FEE70CA99B
:101D40000F2081E831004FF4A0500F904FF48050E5
:101D5000109005210CA8FFF757FB002801D072B6A0
:101D6000FEE713B030BD0000403802400070004074
:101D700070B5194C2068194A10F00C01184804D0AD
:101D80005510042903D0082903D002601BE0056028
:101D900019E01149091F0B68C3F380560B6803F063
:101DA0003F0316B1B5FBF3F201E0B2FBF3F20B68AF
:101DB0000968C3F388135A43C1F30141491C490020
:101DC000B2FBF1F101602168064AC1F30311515CD5
:101DD0000268CA40026070BD083802400024F40066
:101DE0000C000020542A00080248016841F47001E8
:101DF0000160704788ED00E0F0B50646474885B0C1
:101E0000016841F01001016044481438016841F054
:101E100001010160424C0025E560FFF7A9FF414F39
:101E20003868400800EE100A3001B8EE401A00EEA3
:101E3000100AB8EE400AC1EE000ABCEEE00A10EE4D
:101E4000100A80B200EE100AB8EE400A30EEC00A66
:101E5000F3EE000A20EE200ABCEEC00A10EE101AC3
:101E600089B241EA0010A060E06840F00400E06040
:101E7000E06840F00800E060E06820F48050E06036
:101E80002561206920F4405020616561606920F07F
:101E900040006061606920F0800060611421684644
:101EA000FEF7D1FB4FF4C0600090022001900120AA
:101EB0000290032003900720049069461A48FFF718
:101EC000FDF8002211462520FFF76CFA2520FFF7C8
:101ED0005BFAE06820F08000E060E06840F02000FD
:101EE000E060E06840F01000E0606FF0F00020601B
:101EF000E06840F40050E0600CA0FEF731FAFFF714
:101F000037FF18493868B0FBF1F117A0FEF728FA3F
:101F100031461DA0FEF724FA05B0F0BD443802405A
:101F2000001001400C000020000002400D0D0D3D8E
:101F30003D3D3D3D3D3D3D3D3D3D202053544D33D8
:101F40003246343037564520CDE2C9E8B3F5CABC35
:101F5000B1A8B8E6203D3D3D3D3D3D3D3D3D3D3DCB
:101F60000D00000040420F00CFB5CDB3CAB1D6D3AB
:101F7000C6B5C2CA20202020202020202020256491
:101F8000204D487A0D000000554152543120B3F5E0
:101F9000CABCBBAFC5E4D6C32020202020202564C6
:101FA0002D4E6F6E652D382D313B20D2D1CDEAB349
:101FB000C9B3F5CABCBBAFC5E4D6C3A1A2CAD5B7E5
:101FC000A2C5E4D6C30D0000F0B5124B0022A3F168
:101FD0002E044FF47D67164610E0B3F8A2CF855C5F
:101FE0000CF80450B3F8A25F6D1CADB2A3F8A25F69
:101FF000BD4201D1A3F8A26F521C92B28A42ECD327
:102000000548C168090603D4C16841F08001C16078
:10201000F0BD0000A4100020001001402DE9F047A1
:10202000274801684FF00006090600F1040520D595
:1020300023490C310A6812061BD52248A0F12E0351
:10204000B0F8A42FD35C2B60521C92B2A0F8A42F3E
:10205000B2F5007F01D1A0F8A46FB0F8A42FB0F8BA
:10206000A20F824203D1086820F080000860BDE81A
:10207000F0870168144C8A064FF480610AD5E08825
:10208000884201D32868F2E72968104A1154401C9D
:10209000E080ECE780460068C006E8D50C4F894632
:1020A0000A463E800949B81CFEF766FAE088388087
:1020B000E68049460548FEF7A4FAD8F80000E1E7B3
:1020C000004C0040966F00201000002028EC0020FB
:1020D000965F00202DE9F041244C20684FF0000667
:1020E00000061ED5E06800061BD52148A0F12E028F
:1020F000B0F8A41F8A5C6260491C89B2A0F8A41FD2
:10210000B1F5007F01D1A0F8A46FB0F8A41FB0F81A
:10211000A20F814203D1E06820F08000E060BDE8BA
:10212000F0812068134D80064FF480610AD528891C
:10213000884201D36068F2E761680F4A1154401C7D
:102140002881ECE72068C006E9D50C4F88460A468E
:102150003E800949B81CFEF70FFA288938802E8185
:1021600041460548FEF74DFA2068E3E7005000407D
:102170003C8F00201000002028F200203C7F00202F
:1021800070B5044600680169E26821F440511143CA
:1021900001612169A068E26908436169114308434C
:1021A0002168CA6849F20C639A430243CA602068F6
:1021B0004169A26921F440711143416131492068AC
:1021C000884202D03049884202D1FFF7C7F901E0C6
:1021D000FFF7B4F9E2690023192164253226B2F52C
:1021E000004F626828D0A0FB0101930F9200FEF718
:1021F00040F80146B0FBF5F06FF01802504301EBD8
:10220000800006EB0010B0FBF5F000F0F002B1FB2F
:10221000F5F002EB0012B1FBF5F06FF01803584334
:1022200001EB800006EB0010B0FBF5F000F00F00B2
:1022300021681044886070BDA0FB010192185B41C9
:10224000FEF717F80146B0FBF5F00201B1FBF5F01F
:102250006FF01803584301EB800006EBC000B0FBA1
:10226000F5F000F0F80002EB4002B1FBF5F0584346
:1022700001EB800006EBC000B0FBF5F000F00700BA
:10228000D6E7000000100140001401402DE9F0479E
:10229000274801684FF0000609064FF47D631DD5FD
:1022A000C16809061AD52349A1F12E04B1F8A42F5B
:1022B000145D4460521C92B2A1F8A42F9A4201D13D
:1022C000A1F8A46FB1F8A42FB1F8A21F8A4203D1DC
:1022D000C16821F08001C160BDE8F0870168174D39
:1022E0008F06154A2C884FF400110AD511609C42C4
:1022F00001D34068F0E7406811490855641C2C8000
:10230000EAE780460068C006E6D511600D4F9946A1
:102310001A463E800A49B81CFEF72EF93C802E80F2
:1023200049460748FEF76DF94046D8F80010E0E747
:1023300000100140A41000201808024010000020E6
:1023400088BE0020A40000202DE9F047274801683E
:102350004FF00006090600F1040520D523490C3191
:102360000A6812061BD52248A0F12E03B0F8A42F4C
:10237000D35C2B60521C92B2A0F8A42FB2F5007F60
:1023800001D1A0F8A46FB0F8A42FB0F8A20F824238
:1023900003D1086820F080000860BDE8F08701687C
:1023A000144C8A064FF480610AD56088884201D3B4
:1023B0002868F2E72968104A1154401C6080ECE755
:1023C00080460068C006E8D50C4F89460A463E8024
:1023D0000949B81CFEF7D0F8608838806680494605
:1023E0000548FEF70EF9D8F80000E1E70044004088
:1023F0004A3000201000002028DE00204A20002063
:102400002DE9F047274D28684FF00007000605F139
:1024100004064FF480631FD522490C31086800067A
:102420001AD52148A0F12E04B0F8A42F145D346011
:10243000521C92B2A0F8A42F9A4201D1A0F8A47F16
:10244000B0F8A42FB0F8A20F824203D1086820F0A0
:1024500080000860BDE8F0872868144C80060AD523
:10246000A088984201D33068F4E73168104A1154CB
:10247000401CA080EEE72868C006EBD5B8460D4F9B
:1024800099461A46A7F800800949B81CFEF774F867
:10249000A0883880A4F8048049460548FEF7B1F8C2
:1024A0002868E0E700480040F04F002010000020BE
:1024B00028E40020F03F00202DE9F047274801687C
:1024C0004FF00006090600F1040520D523490C3120
:1024D0000A6812061BD52248A0F12E03B0F8A42FDB
:1024E000D35C2B60521C92B2A0F8A42FB2F5007FEF
:1024F00001D1A0F8A46FB0F8A42FB0F8A20F8242C7
:1025000003D1086820F080000860BDE8F08701680A
:10251000144C8A064FF480610AD56089884201D341
:102520002868F2E72968104A1154401C6081ECE7E2
:1025300080460068C006E8D50C4F89460A463E80B2
:102540000949B81CFEF718F8608938806681494649
:102550000548FEF756F8D8F80000E1E700140140FE
:10256000E2AE00201000002028F80020E29E0020AB
:10257000FEE70907090E002804DB00F1E02080F8DF
:102580000014704700F00F0000F1E02080F8141DE7
:10259000704730380A2801D2012070470020704768
:1025A0007047000010B5FEF767F90448FEF702FD1A
:1025B000BDE8104000210148FEF78EB9340000202C
:1025C00003B501216846FFF7FFFC00980CBD000031
:1025D00070B50D4609490446002304200B60C1E98B
:1025E00001300820C1E9033025701146204600F073
:1025F00051F82046BDE8704000F09AB844FE002033
:102600002DED028BFEF76EFEFFF768FBFFF73EFA3B
:10261000FFF7BEFAFFF716FA002220211A48FEF74C
:102620004DFE4FF4E130FFF7E7FBFFF7BBFF4FF440
:102630007A70FEF7F3FC1548012211460546FFF7B4
:10264000C7FF9FED138A40F6B83400BFF0EE481A7A
:10265000B2EE001AF1EE040AB2EE040A284600F0C7
:102660002EF82046FEF7DAFCF0EE481AB2EE001A19
:10267000F1EE040ABAEE040A284600F020F82046DB
:10268000FEF7CCFCE2E70000000802407CFE0020E0
:102690000000204270B50C460546002100F060F8AD
:1026A00000EE104A732247F20501B8EE400A2846B0
:1026B000FFF7CEFA2846BDE8704000F039B810B5F3
:1026C00004462DED048BB0EE408AF0EE618AB0EE48
:1026D000419A6622B0EE600A47F21701FFF7B8FA96
:1026E0000120FEF79BFC6622B0EE490A47F2180172
:1026F0002046FFF7ADFA0120FEF790FC6622B0EE0F
:10270000680A47F21E012046FFF7A2FA0120FEF7F1
:1027100085FC6622B0EE480A47F216012046FFF714
:1027200097FABDEC048B0120BDE81040FEF776BCA3
:102730001CB500210091019100780549064B084322
:1027400004496A4648600548FEF7D8F81CBD0000F9
:1027500000FD000344FE0020200000203400002083
:102760001CB5002200928DF80010019200780549F6
:10277000064B084304496A4648600548FEF7BEF820
:102780001CBD000000FD000444FE002020000020CD
:102790003400002001EE100A70EEC00A0122B8EEEB
:1027A000411A8A40521E20EE811A00EE902AF8EE5D
:1027B000601AC1EE210A30EE800A704721F0004213
:1027C000A2F16052B2F5801F01F0004328BFD2F1A0
:1027D0007F6C0BD95FEA001C43EAC20242EB5070E7
:1027E00018BF704728BF20F001007047B2F5801F66
:1027F000BCBF184670474FEA410C1CF5001F02D2BF
:10280000084600F022B970B500F0C6F80000008953
:10281000FFF7F6BF4FF00040A0F580007047B0FA18
:1028200080F310FA03F10AD0C3F11D0303F58063AE
:102830004FEA41504FEA035202EBD12170474FF06B
:1028400000007047DFF848C170B51CEA111E1EBFBA
:102850001CEA13159EEA0C0F95EA0C0F00F06F802E
:1028600081EA030423EA4C134EEAD47E21EA4C1198
:1028700041F4801143F48013AE44A1FB024CA0FB51
:102880000365AEF17F7E361955EB0C05A1FB034CB9
:102890004CF10003A0FB021C16EB0C06654153F142
:1028A0000003094218BF46F0010613F4007F0BD164
:1028B0004FEA03314FEA0530340341EA155140EA4B
:1028C00016506FF003020AE04FEAC3214FEAC52019
:1028D000F40241EA555140EA56506FF0020202EB11
:1028E0002E4201EB025585EACE710AD05FEA440C14
:1028F00018BF24F0004450F1000041F1000120EA2B
:10290000D47040F2FE7C624500D270BDA84214BF74
:102910004FF080444FF04044002E08BF0024BEF129
:10292000806FA8BFA1F1C041BDE8704080F28280F5
:102930004FF0000001F1C04101F0004170479EEAF4
:102940000C0F0CEA131518BF95EA0C0F06D04FF0C8
:10295000000081EA030E0EF0004170BD00F01CF88B
:102960008900013E00F007B800F009B84FEA430CB7
:102970005FEA5C5C08D081EA030100F05BB84FEAD3
:10298000410C5FEA5C5CF6D14FF0000001497047F2
:102990000000FF070000F87F0EF1020E2EF0030E7C
:1029A0005EF8046B364205D4012A43EB030515F5A6
:1029B000001F12D8012841EB010C1CF5001F0CD898
:1029C0000ED14FEAD17C15F5001F0CEB4C0C0CF12D
:1029D000020C08BF4CEBD37C04E04FF0080C01E084
:1029E0004FEAD37C0CEB4C0526FA05F606F00706F9
:1029F000B6F1040C06D20EEB860CBDE870404CF02C
:102A0000010C6047DFE80CF0090B02024FF00041B7
:102A10004FF00000A1F5002170BD194610460128B5
:102A200051EB010418BFD4F5001484BF002001F05D
:102A3000004170BD0808A0F500114FEA3101704750
:102A40004FF04070E1EE100A7047FF2141EAD0508C
:102A5000C0057047000000000000000001020304F0
:102A60000607080900000000010203040400000832
:102A70000000000000000002000100001000000043
:102A8000A02A00080000002034000000C401000853
:102A9000D42A0008340000200C050100E0010008E1
:102AA0000100000010000000000000000024F400FD
:102AB0000000000000000000000000000000000016
:102AC0000000000000000000000000000000000006
:042AD0000000000002
:040000050800018965
:00000001FF
